:020000040000FA
:10000000D82B0020E5030000ED030000A91A000032
:10001000F1030000F3030000F503000000000000FE
:10002000000000000000000000000000F7030000D6
:10003000F903000000000000FB030000292A000073
:10004000FF03000001040000030400000504000099
:1000500007040000090400000B04000089230000CD
:100060000F04000011040000130400001504000038
:1000700017040000190400001B0400001D04000008
:100080001F040000210400002304000025040000D8
:1000900027040000290400002B0400002D040000A8
:1000A0002F04000031040000330400003504000078
:1000B0003704000039040000711600003D04000000
:1000C0003F040000410400009D230000450400009F
:1000D00047040000490400004B0400004D040000E8
:1000E0004F04000051040000000000005304000011
:1000F0005504000057040000590400005B04000090
:100100005D0400005F04000061040000630400005F
:10011000000000000000000065040000670400000B
:1001200069040000B1230000C52300006F04000033
:1001300071040000730400007504000077040000DF
:1001400000000000000000000000000000000000AF
:10015000790400007B0400007D0400007F0400009F
:10016000000000000000000000000000000000008F
:10017000000000000000000000000000000000007F
:10018000000000000000000000000000000000006F
:10019000000000000000000000000000000000005F
:1001A000000000000000000000000000000000004F
:1001B000810400008304000085040000870400001F
:1001C000890400008B0400008D0400008F040000EF
:1001D00091040000930400009504000097040000BF
:1001E000990400009B0400009D0400000000000032
:1001F000000000009F040000A1040000A304000010
:10020000A5040000A704000000000000000000009A
:10021000A9040000AB040000AD040000AF0400001E
:10022000B1040000B3040000B5040000B7040000EE
:10023000B9040000BB040000BD040000BF040000BE
:10024000C1040000C3040000C5040000C70400008E
:10025000C9040000CB040000CD040000CF0400005E
:10026000D1040000D3040000D504000000F002F81F
:1002700000F0A8F814A696E8000CB244B344DA459E
:1002800001D100F09FF8BAE80F000FA696E8300001
:10029000A5EB040504EB0607AAEB0704A7F1010789
:1002A0004FEA15154FEA3414A4F10104AC4201D30E
:1002B00000F088F813F0010F18BFFB1A43F0010398
:1002C00000F001F8DBE71847387B0000587B00009E
:1002D000103A24BF78C878C1FAD8520724BF30C872
:1002E00030C144BF04680C607047000070470000D4
:1002F0000023002400250026103A28BF78C1FBD82F
:10030000520728BF30C148BF0B6070476E2900F00C
:10031000C981702900F00B83662903F07E87652967
:1003200003F07B87672903F07887612903F07787DB
:1003300003681B0A28BF41F08001692900F076811B
:10034000642900F07381752900F070816F2900F035
:100350009982782900F0D782E92900F03382E429D4
:1003600000F03082F52900F02D82EF2900F096820E
:10037000F82900F0D6820368DB0928BF41F080012C
:10038000632900F0D787732900F0DC87E32900F0A8
:10039000E787F32900F0EC87002070471FB503F0D2
:1003A0002FFF01F03BF804000020002103F012FFB2
:1003B000401C60600020002103F0F6FEE0601FBDDD
:1003C00010B510BD00F0FCFF1146FFF7E7FF02F08B
:1003D00069FE01F0D9F803B4FFF7F2FF03BC01F0A6
:1003E00021F900003F4880473F480047FEE7FEE70D
:1003F000FEE7FEE7FEE7FEE7FEE7FEE7FEE7FEE7D5
:10040000FEE7FEE7FEE7FEE7FEE7FEE7FEE7FEE7C4
:10041000FEE7FEE7FEE7FEE7FEE7FEE7FEE7FEE7B4
:10042000FEE7FEE7FEE7FEE7FEE7FEE7FEE7FEE7A4
:10043000FEE7FEE7FEE7FEE7FEE7FEE7FEE7FEE794
:10044000FEE7FEE7FEE7FEE7FEE7FEE7FEE7FEE784
:10045000FEE7FEE7FEE7FEE7FEE7FEE7FEE7FEE774
:10046000FEE7FEE7FEE7FEE7FEE7FEE7FEE7FEE764
:10047000FEE7FEE7FEE7FEE7FEE7FEE7FEE7FEE754
:10048000FEE7FEE7FEE7FEE7FEE7FEE7FEE7FEE744
:10049000FEE7FEE7FEE7FEE7FEE7FEE7FEE7FEE734
:1004A000FEE7FEE7FEE7FEE7FEE7FEE7FEE7FEE724
:1004B000FEE7FEE7FEE7FEE7FEE7FEE7FEE7FEE714
:1004C000FEE7FEE7FEE7FEE7FEE7FEE7FEE7FEE704
:1004D000FEE7FEE7FEE7000004480549034A054B36
:1004E00070470000012D00006D020000D82100209F
:1004F000D82B0020D82100200FB41CB5084B06AA29
:100500007B4469460090059800F0E5F80446002019
:10051000694600F0F3F820461CBC5DF814FB0000AF
:10052000F901000010B5431C02E010F8011B71B185
:100530008107FAD14FF0013202C88C1A8C4314EAB9
:10054000C211F9D0C01A0A0603D0C01E10BDC01ACD
:1005500010BD0A0401D0801E10BD0902FCD0401E4F
:1005600010BD70477047704770B5044685690068D4
:10057000C10601D5302600E02026C00707D070BD97
:10058000D4E9012130469047206A401C20626D1E4C
:10059000F6D570BD70B5044685690078C00707D1EF
:1005A00070BDD4E9012120209047206A401C2062C0
:1005B0006D1EF6D570BD09684A0501D540B2704779
:1005C000C905FCD500B2704709684A0501D5C0B21B
:1005D0007047C905FCD580B2704770B50C4605461A
:1005E000012A05D02878800600D5EA69002302E0B8
:1005F000012305E05B1C934202D2E05C0028F9D1A4
:10060000A869E618C01AA861286A18442862284612
:10061000FFF7AAFF04E0D5E9012114F8010B904788
:10062000B442F8D32846FFF7B5FF70BD2DE9F0417D
:100630000646002410687529314616A510D0FFF72C
:10064000BAFF002802DA404213A507E031688A07A2
:1006500001D512A502E0490704D511A5012401E046
:10066000FFF7B2FF00210A2206F1240709E0B0FBE0
:10067000F2FCB0FBF2F302FB1C0030307854184659
:10068000491C0028F3D123462A463046BDE8F041F4
:1006900000F061BA000000002D0000002B000000F7
:1006A0002000000011680268006A530501D5087037
:1006B0000AE0D30501D5088006E0130603D5C2176A
:1006C000C1E9000200E008600120704701694A1C8E
:1006D00002610878704700B58FB0CDE90131002183
:1006E000059105497944CDE903101146684600F0AB
:1006F00029F90FB000BD0000E5FFFFFF0A6802F80E
:10070000010B0A60704700002DE9FF5F15468A461D
:100710000446DFF8AC80F8440027D8E900103E46D4
:10072000CDE9001010E03AF816106A4602A800F071
:1007300023FE411C07D02178890603D5E2693918C8
:1007400091420DD80744761C2078800602D5E069D6
:10075000B84205DDAE42E6DB3AF816000028E2D1E9
:10076000A069C01BA0612046FFF7FEFED8E900107B
:10077000CDE90010002017E03AF818106A4602A8E8
:1007800000F0FAFDB0F1FF3F81460BD000250DF1DE
:10079000080B05E0D4E901211BF8050090476D1C0A
:1007A0004D45F7D308F10100B0428046E4DB206AF2
:1007B000384420622046FFF7EDFEBDE8FF9F0000B1
:1007C0003E4A00002DE9F0418046D21D22F007028A
:1007D0000025D2E90002F52915A614D0011E72F1F8
:1007E000000106DA0023D0EB030063EB020211A63E
:1007F00008E0D8F800108B0701D50FA602E04907E2
:1008000001D50EA601251146002408F1240704E0B5
:1008100000F05CF930323A55641C50EA0102F7D11D
:100820002B46324621464046BDE8F04100F093B9E0
:10083000000000002D0000002B0000002000000040
:1008400030B4002100F1240408E002F00705D208CA
:10085000303542EA4372DB086554491C52EA03050D
:10086000F3D10468002310A2250708D504F0200462
:100870000C4304D0C46901230CA2641EC46130BCC3
:1008800000F069B910B5044621461068FFF79CFED8
:1008900002462046BDE810400023D1E7D21D22F0D9
:1008A0000701D1E90023CBE7000000003000000081
:1008B000F0B40D460188090502D5214C7C4402E0C4
:1008C0001F4C7C440E34002100F1240608E002F0A5
:1008D0000F071209E75D42EA03721B097754491CAE
:1008E00052EA0307F3D102780023120704D5702DD2
:1008F00006D009B1022311342246F0BC00F02BB916
:1009000001231034F8E770B504460D4621461068FF
:10091000FFF75AFE024629462046BDE870400023F4
:10092000C6E7D21D22F00703D3E90023C0E703681E
:10093000126843F0200303600823C3610023B7E774
:10094000A04800002DE9F05F894604464FF0000AF8
:10095000DFF874B1FB44C0F820A02046E168884766
:10096000002874D0252806D0D4E901219047206AB8
:10097000401C2062F1E700265F462046E168884778
:100980002028054607DB312D05D2781910F8200CF8
:1009900008B10643F1E7B00701D526F00406C4F814
:1009A0001CA00027C4F818A02A2D09D0284603F05F
:1009B000F3FB38B304EB8708303DC8F8185019E052
:1009C00059F8041B204604EB87029161E1688847CF
:1009D000012F054618D1E069002820DA26F020060C
:1009E0001DE0D8F8180000EB800005EB400030381F
:1009F000C8F818002046E1688847054603F0CCFB9C
:100A00000028EED1012F0AD02E2D08D12046E16812
:100A100088477F1C0546022F46F02006C4DBA069EC
:100A2000002803DA404246F00106A061F00701D039
:100A300026F010066C2D0BD0682D09D04C2D39D026
:100A40006A2D35D0742D35D07A2D33D016E038E0AC
:100A5000E1682F4620468847B842054609D16C2FE9
:100A600026D04FF48060E16806432046884705465B
:100A700004E06C2F1AD04FF4807006430DB3A5F13B
:100A80004100192802D8203546F400664A46294616
:100A9000204626604E46FFF739FC80B101280BD076
:100AA000F61D26F0070000F1080956E74020E4E7AC
:100AB0008020D8E70020D6E706F104094DE7284654
:100AC00052E7206ABDE8F09F3048000030B5B0F131
:100AD0000A0271F100034FEA900E4EEA817EB0EBFC
:100AE0000E0061EB91014FEA101E4EEA017E10EB01
:100AF0000E0041EB11114FEA102E4EEA016E10EB81
:100B00000E0041EB11214FEA104E4EEA014E10EB60
:100B10000E0041EB1141401841F100014FEAD000B5
:100B200040EA41704FEAD1014FEA810444EA9074EF
:100B300010EB800544EB01046D1944EB0404521BD7
:100B4000A3414FF0000348BF0A3200D530BD401C1E
:100B500041F1000130BD2DE9F0470D46994692461E
:100B6000044600F124080168880604D5E06921F0F4
:100B70001001216000E00120A84201DD471B00E0D8
:100B80000027A1697A1902EB0900081AA0612078F0
:100B9000C00602D42046FFF7E7FC002608E0D4E9AF
:100BA00001211AF806009047206A401C761C20623A
:100BB0004E45F4DB2078C0060AD52046FFF7D4FC6A
:100BC00006E0D4E9012130209047206A401C2062D1
:100BD000381EA7F10107F4DC07E0D4E9012118F879
:100BE00005009047206A401C2062281EA5F10105DF
:100BF000F3DC2046FFF7CEFC2078000602D5022069
:100C0000BDE8F0870120FBE72DE9FF4F0C461E46AB
:100C10004FF0FF378BB0D2E90001DDF860800A9019
:100C20008A46C1F30A5505B93D46002108464FF0F2
:100C30000000BAF1000F00F4400005DA00EB80007C
:100C40004FF4400101EA50004FEA9059B9F1010F09
:100C500000DDB9460A9850EA4A000ED044F610501A
:100C6000A5F2FF3545432F14B8F1000F1ED0754291
:100C7000291E1EDDC9F100021CE0B8F1010F4FF082
:100C8000000001D0302103E0F24305E02154401C74
:100C9000B042FBDB30460022002121540B99C1F801
:100CA0000880C1E900200FB0BDE8F08FBD1B6D1CAE
:100CB000DEE74A4600DA694206A800F0F3FB06AB1D
:100CC00093E8070003AB83E8070050460A9902F057
:100CD0006EFB8DE80700A0F500501F3800900398C8
:100CE000002D0ADD42F21F014A460844002303A9F1
:100CF0000390684602F0D8FD09E0A0F500504A468E
:100D00001F38002303A90390684602F0E2FD8DE836
:100D100007000004000C03D04FF0FF30410800E052
:100D20001046B8F1000F03D00022009215461EE0D5
:100D3000751E05D4FFF7CAFE303262556D1EF9D517
:100D4000B3460122084302D000227F1C04E0207831
:100D5000302801D100227F1E002A099784D01DE08F
:100D6000112D07DAFFF7B2FE303262556D1C50EAE2
:100D70000102F5D1084302D00098C8B10EE000216D
:100D8000681E05E0235C625C63542254401E491CCB
:100D90008142F7DBAB46A81B401E0990002004F8F7
:100DA0000B000B98099AC0F80880C0E9002B7AE77D
:100DB00011264FF0000857E72DE9F04F884604460A
:100DC000D21D22F0070191B0D1E90001CDE90A015D
:100DD00003F0CAF902460B98C00F01D02D2007E09E
:100DE0002068810701D52B2002E0202101EAC00004
:100DF000032A099001D0072A05DB03464146204615
:100E000000F010FB0BE12078800601D5E06900E0DE
:100E10000620B8F1650F814606D0B8F1660F18D0EC
:100E2000B8F1670F70D131E00020B9F1110F0090D7
:100E300001DB112301E009F101030AAA01A90CA8B1
:100E4000FFF7E2FEDDE90C70002609F1010583469B
:100E500047E001204B4600904FF000470AAA01A945
:100E60000CA8FFF7D1FEDDE90DB00C995D46002618
:100E700010B909F101000D18B9EB050003D4C0F158
:100E8000FF3609F10105A5EB09002BE0B9F1010FCF
:100E900001DA4FF001090020B9F1110F0090484626
:100EA00001DD112300E003460AAA01A90CA8FFF7FF
:100EB000ABFEDDE90C704D46002683462078000726
:100EC0000AD4AB4500DA5D4601A8012D04DD4119C5
:100ED00011F8011C302907D04F4502DA17F1040F31
:100EE00004DA012082460FE06D1EEEE7002F02DCDF
:100EF000ED1B3E4403E0781CA84200DD7D1CB81BBE
:100F000000F1010A4FF000472078000703D4AA45FA
:100F100001DB4FF0FF3A0021B7F1004F0DF143081C
:100F20008DF8431024D002202B23002F01DA7F42BA
:100F30002D230A21021EA0F1010000DC5FB197FB06
:100F4000F1FC97FBF1F201FB1C7C17460CF1300C15
:100F500008F801CDEEE7A8F101000370218809052A
:100F600001D5452100E06521A0F1010800F8011C30
:100F700009980FA9A1EB0807FF1D00B10120411935
:100F800001EBEA70A1693844081A401EA06120787C
:100F9000C00602D42046FFF7E7FA099828B1D4E941
:100FA00001219047206A401C20622078C00622D58B
:100FB0002046FFF7D9FA1EE0002E04DBB34502DD20
:100FC00001A8805D00E03020D4E901219047206A2B
:100FD000401C2062761CAAF101005FEA000A0AD1D7
:100FE00000F01CFAC0680168405CD4E90121904718
:100FF000206A401C2062281EA5F10105DCDC07E008
:10100000D4E9012118F8010B9047206A401C2062A6
:10101000381EA7F10107F3DC2046FFF7BBFA0320D7
:1010200011B041E62DE9F04F04460D46D21D22F0E5
:10103000070089B0D0E900974846394603F094F894
:101040000246F80F01D02D2307E02068810701D563
:101050002B2302E0202101EAC0038DF820300BB1E0
:10106000012000E00020032A824601D0072A04DB89
:101070002946204600F0D6F93FE12078800601D4C9
:101080000D2500E0E569C7F30A560D2D49DA002168
:101090004FEA175B08464FF00000002F00F44000B5
:1010A00007DA00EB80004FF4400100EBD07001EA5A
:1010B00060008115012901DD4FF0FF3100224FEA68
:1010C000850CBCF1180F06D31346ACF118004FF095
:1010D0008052C24003E04FF4801323FA0CF30CF16A
:1010E0000C0CBCF1200F04D3ACF1200C09FA0CF06D
:1010F00001E007FA0CF000294FF0004801DD18B9B3
:101100000FE00ED140450CD319EB02095F4121B924
:10111000404502D19F4329EA0209BBEB175F00D08B
:10112000761C2088000502D57B48784402E07A4886
:101130007844193808AA302302F80A30037C0AF1EF
:101140000101002E0AF1020A53546A4602DC4FF0F4
:10115000300101E04FF031014FF001088DF800102F
:1011600002D0A6F2FF3603E059EA470100D06B4EE9
:10117000002D02DC2178090704D54FF002082E214A
:101180008DF80110C44600210BE0C7F303433F0173
:10119000C35C491C6D1E02F80830052908F10108DE
:1011A00001DA002DF1DC00210CE000EB1973491C81
:1011B0001B786D1E082902F808304FEA091908F15A
:1011C000010801DA002DF0DC21688B0602D516E05B
:1011D000A8F10108E04505DD02EB080313F8013C26
:1011E000302BF5D0B8F1000F09DD02EB080313F83E
:1011F000013C2E2B03D1090701D4A8F10108002DD1
:1012000005DD3E2102F808106D1E08F10108407C42
:10121000002E02F8080008F1010804DA2D207642B9
:1012200002F8080002E02B2002F808000A214FF41F
:101230007A70864208F101080BDB96FBF0F330333D
:1012400002F8083096FBF0F308F1010800FB136682
:1012500001E0642E0CDB642096FBF0F3303302F8DF
:10126000083096FBF0F308F1010800FB136601E07B
:101270000A2E06DB96FBF1F0303002F8080008F188
:10128000010896FBF1F001FB1060303002F8080015
:10129000A16908F1010808EB050202EB0A00081A2F
:1012A000A0612078C00602D42046FFF75DF9216ACC
:1012B00008AE01EB0A00206204E0D4E9012116F82F
:1012C000010B9047BAF1010AF7D22078C00602D587
:1012D0002046FFF749F96E4609E016F8010B3E2853
:1012E0000FD0D4E901219047206A401C2062B8F158
:1012F0000108F2D22046FFF74DF909B00320BDE8FE
:10130000F08F206A2844206203E0D4E901213020D4
:1013100090476D1EEBD3F8E77E40000002FCFFFF14
:1013200010B5436913B1AFF3008001E0FFF755F941
:10133000012010BD127800F124010A7000224A70C9
:101340000122EDE711684FF0FF32E9E710B543697C
:1013500013B1AFF3008001E0FFF7D6F9012010BD13
:10136000128800F1240182840022C2840122EDE768
:1013700011684FF0FF32E9E72DE9F04116460C46BF
:10138000054600F043F8036893F80101012807D0EF
:10139000FF2C12D8185D80B101202C70BDE8F081BF
:1013A000D3F807013246214603F20713C71828462F
:1013B000BC46BDE8F041002360474FF0FF30EDE749
:1013C000754600F0EBF8AE4605006946534620F03E
:1013D0000700854618B020B5FFF77EF8BDE820402D
:1013E0004FF000064FF000074FF000084FF0000BE1
:1013F000AC46ACE8C009ACE8C009ACE8C009ACE850
:10140000C00921F007018D467047000010B500F0BB
:1014100005F8001D10BD00BFBD2D0000004870473D
:10142000680000202DE9F0411F46044603260168AC
:10143000072A01F4006004DB08B116A505E016A533
:1014400003E008B115A500E015A521F0100020600B
:10145000A069C01EA0610FB1401EA0612046FFF729
:1014600083F84FB1D4E9012138469047206A401CE7
:101470002062C01C206206E0206AFAE7D4E901215C
:1014800015F8010B9047761EF8D22046FFF782F838
:10149000BDE8F0814E414E006E616E00494E46003F
:1014A000696E66002DE9F047814616468AB03548D8
:1014B00078440DC88DE80D0032487844801C03AC98
:1014C0000DC884E80D0041F69B300844372190FB9D
:1014D000F1F290FBF1F5A5F1800501FB12041B3C34
:1014E00002D56442012000E00020DFF898A0804689
:1014F0000027FA44AAF1BE0A0EE0E0070AD03246FD
:10150000684607EB470101230AEB810102F0E1F98C
:101510008DE8070064107F1C002CEED1194F7F442A
:10152000AE3F19E0E80715D007EB04100DF1180ADB
:1015300090E80E008AE80E00C068F04201D19819C8
:1015400008903246012306A903A802F0C2F903ABB2
:1015500083E807006D10641C002DE3D14FF00103F8
:1015600032466946B8F1000F03A802D002F09CF998
:1015700001E002F0AEF9C9E90001C9F808200AB09B
:10158000BDE8F087883D000010B50446AFF3008049
:101590002046BDE81040FEF71EBF0000004870471F
:1015A000480000200000000030B44FF0013C50F82B
:1015B000042B51F8043BCCFA52F4D51A20D1FCB9D3
:1015C00050F8042B51F8043BCCFA52F4D51A17D139
:1015D000B4B950F8042B51F8043BCCFA52F4D51AA4
:1015E0000ED16CB950F8042B51F8043BCCFA52F4EC
:1015F000D51A05D1002CDAD030BC4FF0000070476E
:1016000029BAB1FA81F111F01801D1F1200084401A
:10161000F2D1CA40CB4012F0FF0213F0FF0330BCFE
:10162000D01A704701491820ABBEFEE72600020021
:101630007047000081B000909DF80000C0060028AF
:1016400007D5FFE745F21C41C4F2020110200860F3
:10165000FFE79DF80000C00738B1FFE745F21C41E5
:10166000C4F2020101200860FFE701B070470000EA
:1016700080B582B045F21440C4F2020000680190C7
:101680000198FFF7D7FF02B080BD000010B5AAB0E7
:101690002990FF20019002F05FFA45F27C50C0F2E1
:1016A000000002F00DFD019802F010FD47F68D508C
:1016B000C0F200004FF60071C0F2FF010391192241
:1016C0000292082302F0A8FC45F2B440C0F20000E8
:1016D00002F0F6FC029B039947F69550C0F2000019
:1016E000282202F099FC45F24460C0F2000002F0AA
:1016F000E7FC47F6A950C0F200006FF07F410A22D4
:101700000792322302F088FC039802F0C7FC002005
:10171000069050217F2204928B2302F04FFA45F26B
:10172000B820C0F2000002F0CBFC069947F69D50AD
:10173000C0F200000F225A2302F06EFC45F2900026
:10174000C0F2000002F0BCFC40F23000C2F2000027
:10175000027847F69A51C0F2000109A80890FEF7F6
:10176000CBFE069908983C22702302F055FC4FF6F8
:10177000FF70C0F2E000059002F090FC049A069819
:101780008C219F2302F01AFA45F2EC30C0F20000DF
:1017900002F096FC059802F099FC089842F2BC1100
:1017A000C2F2000109684BF2C532C9F2A212A1FBD4
:1017B0000232D20A4AF6AB23C0F6AA23A2FB03C325
:1017C00003EB4303A2EBC30248F68903C8F6880380
:1017D000A1FB033E4FEA5E1C48F68903C0F688036E
:1017E000ACFB033463081B01A3EB5403ACEB830392
:1017F0004FEA0C1CACEB5E1CA1EB8C01EC46CCF868
:10180000001047F6B651C0F20001FEF775FE0699CA
:10181000079A08988E2302F0FFFB2AB010BD000043
:1018200083B002908DF80710029900204876029A42
:1018300050604FF0606111600299C86045F25550E8
:10184000C0F6557088609DF8070001380146009188
:10185000042830D80099DFE801F0030B1D1426009E
:101860000299002048610720C0F67870086123E0E3
:101870000299002048614EF20700C0F6017008612D
:101880001AE002990020486149F60700C0F661702D
:10189000086111E002990020486149F60700C0F68E
:1018A0006070086108E00299002048610720C0F6D6
:1018B0006070086100E0FFE702991C2008760C21A7
:1018C000C4F20301086840F001000860FFE70298D5
:1018D000407E08B9FFE7FAE703B0704710B5A8B03B
:1018E00027908DF89B108DF89A2045F25420C0F275
:1018F0000000016842688368D0F80CC0D0F810E09E
:1019000044692494CDF88CE0CDF888C021932092CE
:101910001F918069259047F6D45CC0F2000CCDF889
:1019200000C0DCF80000DCF80410DCF80820DCF86B
:101930000C30DCF810E0DCF814401994CDF860E0CD
:101940001793169215911490DCF81800DCF81C100F
:10195000DCF82020DCF82430DCF828C0CDF878C092
:101960001D931C921B911A9045F27020C0F200004A
:10197000016842688368D0F80CC0D0F810E0446970
:101980001294CDF844E0CDF840C00F930E920D9123
:101990008069139045F28C2CC0F2000CCDF804C085
:1019A000DCF80000DCF80410DCF80820DCF80C306F
:1019B000DCF810E0DCF814400794CDF818E005934B
:1019C000049203910290DCF81800DCF81C10DCF89B
:1019D0002020DCF82430DCF828C0CDF830C00B9390
:1019E0000A92099108909DF89A0027999DF89B20EA
:1019F00011448876279900224A604FF078400860A9
:101A00002799CA6045F25550CFF6555088602799FE
:101A10001F200876279842769DF89A1014A850F84F
:101A20002100C0049DF89B301FA951F8231040EA03
:101A3000C1106721CEF20001084327994A6108616D
:101A40000C21C4F20301086840F001000860FFE7C0
:101A50002798407E08B9FFE7FAE7279800224276E8
:101A60009DF89A1002A850F82100C0049DF89B3000
:101A70000DA951F8231040EAC1106721CEF20001F0
:101A8000084327994A6108610C21C4F203010868E0
:101A900040F001000860FFE72798407E08B9FFE7A3
:101AA000FAE728B010BD000082B047F6C750C0F278
:101AB0000000019001F0FEF980B51E2001F0A8F9A8
:101AC00080BD000081B00090009842F2C011C2F2C7
:101AD0000001086001B0704782B00190009140F2AF
:101AE0003C00C2F2000000680199086040F240002A
:101AF000C2F2000000680099086002B07047000060
:101B000080B582B00190009144F2FC31C4F2000132
:101B1000086840F040000860086820F0080008608D
:101B200042F2D410C2F2000000680199009B00222A
:101B300000F00EFF42F2C010C2F200000068C0B90F
:101B4000FFE7FFE742F2AC10C2F20000006808B9FC
:101B5000FFE7F7E742F2AC11C2F200010020086093
:101B600044F2FC31C4F20001086840F0080008604B
:101B7000FFE702B080BD000010B594B013908DF85F
:101B80004B10139842F2D411C2F20001086013986E
:101B900043F26501C0F2000100F01EFC44F2FC318A
:101BA000C4F200010D91086840F008000860086860
:101BB00040F0800008600520109001F08FF90D9A28
:101BC0001098116821F08001116001F087F90D9AD9
:101BD0001098116841F08001116001F07FF90D99B2
:101BE000086840F00800086001200E9001F092F9AA
:101BF0000A20119001F072F90E9801F08BF91198FA
:101C000001F06CF9112001F085F978200F9001F0B6
:101C100065F9292001F07EF90F9801F05FF93A206B
:101C200001F078F9109801F0AFF9119801F056F928
:101C3000B12001F06FF940F2B400C2F200000021BF
:101C40000170062141700321817001F0D7F91198CC
:101C500001F044F9362001F05DF99DF84B0080B9A0
:101C6000FFE740F23C01C2F200018020086040F230
:101C70004001C2F20001A0200860102001F084F9A8
:101C80003AE09DF84B0001280FD1FFE740F23C01FC
:101C9000C2F20001A020086040F24002C2F200023D
:101CA0008021116001F070F925E09DF84B000228B9
:101CB00010D1FFE740F23C01C2F200018020086031
:101CC00040F24001C2F20001A0200860C02001F0F3
:101CD0005BF90FE040F23C01C2F20001A020086075
:101CE00040F24001C2F2000180200860602001F053
:101CF0004BF9FFE7FFE7FFE7B42001F00BF9002005
:101D0000069001F041F9C02001F004F940F2B4005E
:101D1000C2F200000790022102910170702242700D
:101D200001F06CF90A200A9001F0D8F8C12001F006
:101D3000F1F80520009001F027F9C22001F0EAF83F
:101D40000299069A07980A9B0370427001F056F9AF
:101D5000C52001F0DFF8029907983C220270382272
:101D6000427001F04BF90A9801F0B8F8E02001F058
:101D7000D1F8009A02990798092303704FF0160CC6
:101D800080F801C083702023C370212303711B23BB
:101D9000019343711323099383711923C37117238B
:101DA0000372152343721E23049383722B2305931E
:101DB000C372042308930373427381730E21C173AA
:101DC0001021039101F01AF9E12001F0A3F8DDF8E8
:101DD00004C0029A0399059B0798DDF810E00B24D4
:101DE000047014240B9444700824847080F803E079
:101DF000222404711D2444711824847180F807E0A2
:101E000080F808C04FF01A0C80F809C04FF0240C7D
:101E100080F80AC0C37206230373437382730F22D0
:101E2000C27301F0EBF80A9801F058F82A2001F08B
:101E300071F8069A0798089902704270827040F211
:101E40003C02C2F200021268013AC27001F0D6F8F8
:101E5000059801F05FF8069A079808990270427099
:101E6000827040F24002C2F200021268013AC2706F
:101E700001F0C4F8099801F04DF80A9801F02EF825
:101E80002C200C9001F046F80B9801F027F829203F
:101E900001F040F8782001F021F80C9801F03AF8B0
:101EA00014B010BD80B54EF21C61C4F20F01086879
:101EB00040F001000860FFE74EF61C20C4F20F005E
:101EC0000068C00708B9FFE7F6E74EF21861C4F2F0
:101ED0000F01086840F001000860FFE74EF6182087
:101EE000C4F20F000068C00708B9FFE7F6E74EF23A
:101EF0000461C4F20F01086840F03F000860FFE78A
:101F00004EF60420C4F20F000068C00708B9FFE7CE
:101F1000F6E7FFE74EF60420C4F20F0000688007E2
:101F2000002801D4FFE7F5E7FFE74EF60420C4F2EE
:101F30000F0000684007002801D4FFE7F5E7FFE73E
:101F40004EF60420C4F20F0000680007002801D4F8
:101F5000FFE7F5E74EF20861C4F20F01086840F0B0
:101F60003F000860FFE74EF60820C4F20F0000684B
:101F7000C00708B9FFE7F6E7FFE74EF60820C4F20E
:101F80000F0000688007002801D4FFE7F5E7FFE7AE
:101F90004EF60820C4F20F0000684007002801D464
:101FA000FFE7F5E7FFE74EF60820C4F20F000068F0
:101FB0000007002801D4FFE7F5E7FFE74EF6082009
:101FC000C4F20F000068C006002801D4FFE7F5E75F
:101FD000FFE74EF60820C4F20F00006880060028D4
:101FE00001D4FFE7F5E745F2245EC4F2020EDEF805
:101FF000000040F00E00CEF8000045F2004CC4F2A4
:10200000020CDCF8000040F00E00CCF8000045F2B5
:102010001C53C4F20203186840F00E00186045F229
:102020002042C4F20202106820F00E00106045F257
:102030002051C4F2020144F24B30C4F64F40086014
:10204000DEF8001041F01101CEF80010DCF80010AD
:1020500021F01101CCF80010196841F0110119604C
:10206000116821F01101116045F22C52C4F20202F4
:10207000116821F01101116045F21052C4F2020200
:10208000116841F01101116045F21042C4F20202E0
:10209000116821F01101116045F20843C4F20203F6
:1020A000196821F01101196045F20443C4F20203DA
:1020B000196821F01101196045F20C43C4F20203C2
:1020C0006FF011011960116841F01101116044F2C3
:1020D0002051C4F20001086044F20042C4F2000240
:1020E000106840F0C800106044F21C51C4F20001B6
:1020F000086840F0C800086044F2204CC4F2000CAC
:10210000DCF8000020F0C800CCF8000044F22C53AA
:10211000C4F20003186840F6FF7EC0F2FF0E00EA2A
:102120000E001860086840F024000860DCF8000029
:1021300040F02400CCF8000018684FF2FF0ECFF6F4
:102140000F7E00EA0E001860186840F2002EC0F200
:10215000200E40EA0E00186045F2004EC4F2000E58
:10216000DEF8000040F00200CEF8000045F21C5EF0
:10217000C4F2000EDEF8000040F00200CEF80000CD
:10218000DCF8000040F00300CCF80000086840F0E4
:102190000300086044F2285CC4F2000CDCF8000084
:1021A00020F00300CCF80000186820F0FF00186051
:1021B000186840F01100186047F20043C4F20003B1
:1021C000186840F00F00186047F21C53C4F2000377
:1021D000186840F00F00186047F22043C4F2000373
:1021E000186820F00F00186047F22C53C4F2000367
:1021F00018684FF6FF7C20EA0C00186044F2004398
:10220000C4F20203186820F00E00186044F21C5358
:10221000C4F20203186840F00E00186044F2204334
:10222000C4F20203186820F00E00186044F22C5328
:10223000C4F2020318684FF6F07C20EA0C00186024
:1022400044F21053C4F20203186840F00E00186004
:10225000106840F010001060086840F0100008603E
:1022600044F2FC31C4F20001086820F0100008605C
:1022700080BD000080B586B0059005980068049088
:102280000498C06803900498806902909DF80C003F
:102290004007002842D5FFE704988068ADF80600A3
:1022A000059890F82C00C00760B9FFE70598C06951
:1022B00038B1FFE79DF80600059AD1695269885444
:1022C000FFE70CE00598406A40B1FFE7BDF8060063
:1022D000059A516A526921F81200FFE7FFE7059954
:1022E000486901304861059840690599896A8842C2
:1022F00013DBFFE70499486920F004004861049962
:10230000486820F0020048600598006B20B1FFE7A4
:102310000598006B8047FFE7FFE7FFE79DF80C009B
:102320008007002805D4FFE79DF80C00C00740B3E4
:10233000FFE7059800690599896A884206DBFFE78F
:102340000499486920F00800486119E0059890F860
:102350002C00C00738B9FFE7059988690969405C16
:102360000499886007E00599086A096930F8110046
:1023700004998860FFE70599086901300861FFE763
:10238000FFE706B080BD000080B542F2C410C2F283
:1023900000000068FFF76EFF80BD000080B542F2CC
:1023A000C410C2F200004068FFF764FF80BD000067
:1023B00080B542F2C410C2F200008068FFF75AFFF5
:1023C00080BD000080B542F2C410C2F20000C068B7
:1023D000FFF750FF80BD000083B00290019102988A
:1023E000009001980099086303B0704710B590B051
:1023F0008C46864613981299CDF838E08DF837C090
:102400000C928DF82F308DF82E108DF82D000E982F
:1024100004909DF8370001460391032828D80399BA
:10242000DFE801F0020B141D48F20000C4F20000C6
:1024300009900720ADF82A001EE049F20000C4F21E
:10244000000009902220ADF82A0015E04AF20000B1
:10245000C4F2000009902220ADF82A000CE04BF2F3
:102460000000C4F2000009902220ADF82A0003E029
:102470004FF0FF300F907FE1099804990860BDF993
:102480002A000499486004989DF8372042F2C4114C
:10249000C2F2000141F822000999486820F00200C8
:1024A00048600999486820F0040048609DF82F00B2
:1024B0000146029150B1FFE7029801280CD1FFE7D5
:1024C0000999086820F04000086009E00999086847
:1024D00040F04000086003E06FF001000F904BE116
:1024E0009DF82E0001460191022804D0FFE70198D3
:1024F000032806D00BE00999086820F080000860E6
:1025000009E00999086840F08000086003E06FF076
:1025100002000F9030E10999D1F8C80F20F00F00A8
:10252000C1F8C80F0999D1F8C80FC1F8C80F40F217
:102530002800C2F200000068089008980C9990FBEF
:10254000F1F005900598012804DCFFE76FF0040026
:102550000F9011E10598FE2805DCFFE7059806902D
:102560000020079017E0FE200690059940F20940F0
:10257000C8F2021050FB0111C81100EBD1700138F4
:1025800007900798B0F5807F04DDFFE76FF0040047
:102590000F90F1E0FFE70999086820F47F40086098
:1025A000079A0999086840EA022008600698099984
:1025B00008610999086820F00F00086007980999D8
:1025C0000860049991F82C0000F0FE0081F82C00BE
:1025D0009DF82D000438014600910C2800F2B780C8
:1025E0000099DFE801F0071019222B344454647479
:1025F0008494A4000999086840F0030008600499D5
:102600000420C860A7E00999086840F00400086049
:1026100004990520C8609EE00999086840F005000B
:10262000086004990620C86095E00999086840F0A0
:102630000600086004990720C8608CE009990868C2
:1026400040F00700086004990820C86083E00999F9
:10265000086840F00800086004990920C8600499DF
:1026600091F82C0040F0010081F82C0073E00999EA
:10267000086840F00900086004990A20C8600499BD
:1026800091F82C0040F0010081F82C0063E00999DA
:10269000086840F00A00086004990B20C86004999B
:1026A00091F82C0040F0010081F82C0053E00999CA
:1026B000086840F00B00086004990C20C860049979
:1026C00091F82C0040F0010081F82C0043E00999BA
:1026D000086840F00C00086004990D20C860049957
:1026E00091F82C0040F0010081F82C0033E00999AA
:1026F000086840F00D00086004990E20C860049935
:1027000091F82C0040F0010081F82C0023E0099999
:10271000086840F00E00086004990F20C860049912
:1027200091F82C0040F0010081F82C0013E0099989
:10273000086840F00F00086004991020C8600499F0
:1027400091F82C0040F0010081F82C0003E06FF0BC
:1027500003000F9010E00999486840F010004860AD
:102760000999486840F002004860BDF92A0000F06D
:1027700067FB00200F90FFE70F9810B010BD00001E
:1027800086B004908DF80F100498029002980068AB
:1027900001900199486820F002004860019908689A
:1027A00020F00F000860029991F82C0000F0FE0064
:1027B00081F82C009DF80F000438014600910C2888
:1027C00000F2B7800099DFE801F0071019222B34DE
:1027D000445464748494A4000199086840F0030090
:1027E000086002990420C860A7E00199086840F0D9
:1027F0000400086002990520C8609EE001990868FD
:1028000040F00500086002990620C86095E0019933
:10281000086840F00600086002990720C8608CE054
:102820000199086840F00700086002990820C86014
:1028300083E00199086840F00800086002990920C7
:10284000C860029991F82C0040F0010081F82C003A
:1028500073E00199086840F00900086002990A20B5
:10286000C860029991F82C0040F0010081F82C001A
:1028700063E00199086840F00A00086002990B20A3
:10288000C860029991F82C0040F0010081F82C00FA
:1028900053E00199086840F00B00086002990C2091
:1028A000C860029991F82C0040F0010081F82C00DA
:1028B00043E00199086840F00C00086002990D207F
:1028C000C860029991F82C0040F0010081F82C00BA
:1028D00033E00199086840F00D00086002990E206D
:1028E000C860029991F82C0040F0010081F82C009A
:1028F00023E00199086840F00E00086002990F205B
:10290000C860029991F82C0040F0010081F82C0079
:1029100013E00199086840F00F0008600299102048
:10292000C860029991F82C0040F0010081F82C0059
:1029300003E06FF00300059007E00199486840F05C
:102940000200486000200590FFE7059806B0704738
:1029500086B0059004910392029305980190019826
:102960000068009001990020086101994861019870
:1029700090F82C00C00778B9FFE703980199C86167
:102980000498019988610298019988620198806988
:102990000078009988600FE00398019948620498D4
:1029A0000199086202984010019988620198006AB2
:1029B000008800998860FFE7019908690130086183
:1029C00000990C2048610099486840F00200486076
:1029D00006B0704780B584B0029002980138B0F11B
:1029E000807F03D3FFE7012003901AE002980138AB
:1029F0004EF21401CEF2000108604FF0FF300721C3
:102A0000019100F035FA01994EF21802CEF200025F
:102A1000002010604EF21002CEF20002116003900E
:102A2000FFE7039804B080BD42F2B011C2F200018A
:102A30000120086042F2B411C2F2000108680130BE
:102A4000086040F2AC00C2F20000006801282BD1FF
:102A5000FFE740F2A800C2F2000001680131016006
:102A600000684BF65002C0F21E5245F62941CCF2E6
:102A70008F2100FB01204FEAB00045F62841C0F24B
:102A80008F2188420FD8FFE744F2FC31C4F20001E5
:102A9000086820F01000086040F2AC01C2F20001AA
:102AA00000200860FFE7FFE742F2B410C2F2000026
:102AB0000068B0F57A7F30D1FFE742F2A811C2F288
:102AC00000010120086042F2B411C2F200010020AE
:102AD000086042F2BC10C2F20000016801310160DE
:102AE000006845F28111C0F20101884207D3FFE777
:102AF00042F2BC11C2F2000100200860FFE742F27E
:102B0000BC10C2F20000006800F00100400045F275
:102B10003801C4F202010860FFE740F23800C2F257
:102B200000000068C0B1FFE740F23800C2F20000C8
:102B3000016801390160006868B9FFE740F23801B7
:102B4000C2F200010A20086042F2A411C2F20001A0
:102B500001200860FFE7FFE740F23400C2F2000006
:102B60000068C0B1FFE740F23400C2F20000016823
:102B700001390160006868B9FFE740F23401C2F230
:102B800000013220086042F2B811C2F200010120B7
:102B90000860FFE7FFE7704782B04EF26000C4F2C2
:102BA0000F00006801904EF27000C4F20F00006840
:102BB00000909DF803000006002868D5FFE79DF807
:102BC0000100000700283FD4FFE740F22801C2F2CD
:102BD000000148F20040C1F2D77008609DF8030080
:102BE000400600281BD4FFE740F22801C2F2000192
:102BF0000868400808609DF80600400600280DD5CA
:102C0000FFE740F22801C2F200010868009AC2F30F
:102C1000C5520132B0FBF2F00860FFE713E09DF807
:102C20000600400600280DD5FFE740F22801C2F259
:102C300000010868009AC2F386520132B0FBF2F03C
:102C40000860FFE7FFE721E00198C0F3841145F237
:102C50008030C0F2000050F8210040F22801C2F29A
:102C6000000108609DF80600400600280DD5FFE72A
:102C700040F22801C2F200010868009AC2F3C5526E
:102C80000132B0FBF2F00860FFE7FFE735E09DF8A6
:102C90000500000700280FD5FFE70198C0F3841155
:102CA00045F28030C0F2000050F8210040F22801C7
:102CB000C2F2000108600CE040F22801C2F20001FB
:102CC00048F20040C1F2D770086008684008086008
:102CD000FFE79DF80600400600280DD5FFE740F20B
:102CE0002801C2F200010868019AC2F3C3520132FE
:102CF000B0FBF2F00860FFE7FFE702B070470000AA
:102D000082B04EF68851CEF20001086840F470009F
:102D100008604EF26001C4F20F010868019001984A
:102D200020F00100019001980860FFE74EF250008A
:102D3000C4F20F000068C005002801D4FFE7F5E7E2
:102D40004EF25801C4F20F014FF4807008600198F0
:102D500020F03000019001980190019820F4F86073
:102D60000190019840F4A8600190019820F0F06073
:102D70000190019840F480000190019820F42050C7
:102D80000190019820F460200190019801904EF28A
:102D90007001C4F20F01086840F000400860086844
:102DA0000090009840F080400090009820F480004F
:102DB0000090009820F0FE500090009820F07000E5
:102DC000009000980090009840F08070009000986B
:102DD00020F40050009001984EF26002C4F20F02FD
:102DE000106000980860FFE74EF26810C4F20F0010
:102DF0000068C00708B9FFE7F6E74EF27001C4F2B9
:102E00000F01086820F40060086002B070470000FD
:102E100081B0ADF80200BDF9020000280ED4FFE732
:102E2000BDF9021001F01F02012090404A094EF244
:102E30000011CEF2000141F82200FFE701B0704717
:102E400081B0ADF80200BDF9020000280ED4FFE702
:102E5000BDF9021001F01F02012090404A094EF214
:102E60000011CEF2000141F82200FFE701B07047E7
:102E700082B0ADF806000091BDF9060000280AD422
:102E8000FFE700984001BDF906104EF20042CEF275
:102E9000000288540BE000984001BDF8061001F0D4
:102EA0000F014EF61452CEF200028854FFE702B032
:102EB00070470000BFF34F8F4EF60C51CEF2000169
:102EC000086800F4E0600422C0F2FA52104308607F
:102ED000BFF34F8FFFE700BFFDE7000082B0019016
:102EE00040F22800C2F2000000680199484341F214
:102EF0005971CDF2B711A0FB0110400B0090FFE714
:102F00000098411E009110B1FFE700BFF8E702B042
:102F10007047000080B582B08DF807009DF807006B
:102F200040F2F401C2F20001087044F2FC32C4F233
:102F30000002106820F040001060106820F00800C7
:102F4000106042F2D410C2F2000000680022012397
:102F5000FFF7FEFCFFE742F2AC10C2F2000000688F
:102F600008B9FFE7F7E742F2AC11C2F20001002016
:102F7000086044F2FC31C4F20001086840F0080027
:102F8000086002B080BD000080B582B08DF80700F7
:102F90009DF8070040F2F501C2F20001087044F20A
:102FA000FC32C4F20002106840F04000106010686B
:102FB00020F00800106042F2D410C2F20000006855
:102FC00000220123FFF7C4FCFFE742F2AC10C2F27B
:102FD0000000006808B9FFE7F7E742F2AC11C2F25F
:102FE00000010020086044F2FC31C4F200010868CE
:102FF00040F00800086002B080BD000080B582B0DB
:103000000190009144F2FC31C4F20001086840F0E4
:1030100040000860086820F00800086042F2D41000
:10302000C2F2000000680199009B0022FFF790FCAB
:10303000FFE742F2AC10C2F20000006808B9FFE7F7
:10304000F7E742F2AC11C2F200010020086044F23E
:10305000FC31C4F20001086840F00800086002B0CA
:1030600080BD000080B542F2C010C2F200000068CE
:1030700038B9FFE742F2AC11C2F20001012008604A
:103080000EE042F2C010C2F200000068804744F235
:10309000FC31C4F20001086840F008000860FFE756
:1030A00080BD000080B584B0002002900390FEF740
:1030B000F9FEFFF771FD40F22800C2F2000000683F
:1030C00044F6D351C1F26201A0FB01108009FFF761
:1030D00081FC02990720FFF7CBFE02996A4608207F
:1030E00050600220106040F27010C2F2000047F6FB
:1030F0004002C0F27D120123FFF778F900F000F9D9
:10310000FEF7DAFC00F030F8FFE742F2A410C2F25A
:1031100000000068B0B1FFE740F22C00C2F20000EE
:10312000006870B1FFE742F2A411C2F20001002072
:10313000086040F22C01C2F20001086000F09AFD24
:10314000FFE7FFE742F2B810C2F20000006848B1A2
:10315000FFE742F2B811C2F200010020086000F05F
:1031600035F8FFE7D1E7000080B584B040F2F80001
:10317000C2F2000001900521FEF752FB01980221E6
:10318000FEF74EFB01980421FEF74AFB019801214E
:103190000291FEF745FB02988DF80F00FFE79DF8BE
:1031A0000F00062810DCFFE79DF80F1040F2F80032
:1031B000C2F200000A22FEF791FBFFE79DF80F0024
:1031C00001308DF80F00EAE704B080BD85B0002023
:1031D000019047F2FC32C4F20002116841F00F0185
:1031E00011600490FFE70498032873DCFFE704995B
:1031F000012000FA01F247F23C01C4F20001086824
:103200009043086000BF00BF00BF44F2FC30C4F22E
:1032100002000068C0F34200029002980090032868
:1032200008D0FFE70098052809D0FFE70098062896
:1032300009D00DE0022003900120019009E0012057
:103240000390019005E0002003900120019000E030
:10325000FFE70198012838D1FFE740F2AC00C2F245
:1032600000000068012830D0FFE740F2B000C2F251
:103270000000006848BBFFE744F2FC31C4F20001E3
:10328000086840F01000086040F2A801C2F2000196
:103290000020086040F2AC01C2F200010120086089
:1032A00040F2B001C2F200010860049800EB400156
:1032B00040F21C00C2F2000008440399405C40F256
:1032C0003001C2F20001087004E0FFE70498013009
:1032D000049088E70298072807D1FFE740F2B00181
:1032E000C2F2000100200860FFE747F2FC31C4F29F
:1032F0000001086820F00F00086005B0704700006A
:1033000080B586B040F27010C2F200000290022137
:10331000FEF732FC05A804A9FEF7DEFB0599049A26
:103320006B464FF40050186040F22010C2F20000CB
:1033300040F2A413C2F2000300F0F4FC0298102142
:10334000FFF71EFA012000F0FBFBFF20039000F0C6
:1033500003FC039800F0BAFE44F23C60C0F20000A7
:1033600000F0AEFE43F2A130C0F20000FEF7AAFB6F
:1033700043F29130C0F2000000F0E8FB45F2FC316E
:10338000C4F20001086840F00200086006B080BD89
:1033900040F22C01C2F200010120086070470000D9
:1033A00040F22C01C2F200010120086070475FEA80
:1033B000400C08BF91F0000F4FEA8C234FEAC12266
:1033C00043EA51514FEA1C5018BF00F5F0404FEA54
:1033D000300018BF41F000415FEA6C5C00F02980CA
:1033E000BCF1FF3F08BF40F080407047130C06BFA0
:1033F00012044FF0100C4FF0000C130E04BF120219
:103400000CF1080C130F04BF12010CF1040C930F04
:1034100004BF92000CF1020CD30F04BF52000CF158
:10342000010C11464FF00002A0F11F00A0EB0C00B0
:10343000704711F0004F08BF704731F000413FF472
:10344000D5AF0B0C06BF09044FF0100C4FF0000C69
:103450000B0E04BF09020CF1080C0B0F04BF09018D
:103460000CF1040C8B0F04BF89000CF1020CCB0F84
:1034700004BF49000CF1010CCCF1200322FA03F344
:1034800041EA030102FA0CF2A0EB0C0000F101008A
:103490007047000023F07F4720F07F4C80EA030054
:1034A00000F00040ACEB070303F57C5303F1FF038E
:1034B0002DE9804909B44FEA144324EA03484FEA4E
:1034C000154B25EA0B4E0FF2042606EB13273E7828
:1034D00003FB0667C7F5000707FB06F64FEAD6466B
:1034E00006F102064FEA543707FB066CCCF1005C8C
:1034F0004FEA1C472CEA074C0CFB06F507FB06F4C9
:1035000004EB15464FEA961649085FEA320234BFCB
:1035100000204FF000404FEAD13706FB07FC4FEA8E
:103520001C4C0CFB0BF7D21B03FB0CF761EB0701E8
:103530000CFB0EF7B0EB074072EB17420CFB08F7E1
:1035400034BFA2EB0742B2EB074261EB17414FEAEF
:103550000C444FEA910706FB07FC4FEA1C4C0CFB9E
:103560000BF7B0EBC74072EB573203FB0CF734BFDD
:10357000A2EBC742B2EBC74261EB57310CFB0EF72F
:10358000B0EBC70072EB57720CFB08F734BFA2EB2D
:10359000C702B2EBC70261EB57714FEA816141EAA2
:1035A00092114FEA826242EA90124FEA806004EB85
:1035B000CC04039F4FEAD13706FB07FC4FEA1C4CB3
:1035C0000CFB0BF7D21B03FB0CF761EB07010CFBA9
:1035D0000EF7B0EB074072EB17420CFB08F734BF55
:1035E000A2EB0742B2EB074261EB17414FEA8C5561
:1035F00004EB9C244FEA910706FB07FC4FEA1C4CA6
:103600000CFB0BF7B0EBC74072EB573203FB0CF728
:1036100034BFA2EBC742B2EBC74261EB57310CFBA0
:103620000EF7B0EBC70072EB57720CFB08F734BF14
:10363000A2EBC702B2EBC70261EB57714FEA81619F
:1036400041EA92114FEA826242EA90124FEA8060A8
:1036500015EB4C2544F100044FEAD13706FB07FC7B
:103660004FEA1C4C0CFB0BF7D21B03FB0CF761EB76
:1036700007010CFB0EF7B0EB074072EB17420CFB97
:1036800008F734BFA2EB0742B2EB074261EB1741E8
:103690004FEA813141EA92414FEA823242EA904256
:1036A0004FEA80304FEA0C7615EB1C1544F100040C
:1036B00048EA03434EEA0B484FF0000EB2EB080C09
:1036C00071EB030724BF624639464EEB0E0E4FF0F6
:1036D000000B0018524149414BEB0B0BB2EB080CAD
:1036E00071EB03077BF1000B24BF624639464EEBBA
:1036F0000E0E4FF0000B0018524149414BEB0B0BE3
:10370000B2EB080C71EB03077BF1000B24BF6246A0
:1037100039464EEB0E0E51EA020718BF46F001067D
:1037200016EB0E7655F1000254F1000103D5BDE809
:103730008901BDE80088BDE88901BDE80048B619E7
:10374000524141EB0101A3F10103704780807F7E6C
:103750007D7C7B7A79787776767574737271717007
:103760006F6E6E6D6C6C6B6A6A69686867666665B9
:103770006464636362616160605F5F5E5E5D5D5C47
:103780005C5B5B5A5A5959585857575656555555B8
:103790005454535352525251515050504F4F4F4E18
:1037A0004E4D4D4D4C4C4C4B4B4B4A4A4A49494966
:1037B00048484847474747464646454545444444A8
:1037C0004443434343424242424141419C46002BD1
:1037D00030D477002BD04FEA37071CB503B44FF035
:1037E00010004FF01001BAF1000F06D0BCF1000F2D
:1037F000DCBF40F0080040F008014FF000000FBCB3
:10380000BDE810400BF1010BBBF1010F08BF5FEAEF
:10381000170722BF12F1010211F101014FF000411F
:1038200043F1000300F0004043EA00007047F9D381
:103830005708D0E746EA06464FEA164613F1400F0E
:103840001FDD13F1200FDFBF16430A46002120338E
:103850005B42BED0C3F1200746EA06464FEA164651
:1038600002FA07F746EA070622FA03F2C3F1200735
:1038700001FA07F742EA070221FA03F14FF00003C9
:10388000A7E746EA020646EA06464FEA164646EA31
:103890000106BCBF46EA0646360C4FF000034FF067
:1038A00000024FF0000194E72DE9804C70B49A4675
:1038B000934691E8380007C831EA400C48BF34EA23
:1038C000430C03D5FFF7E6FDFFF780FFF0BCBDE832
:1038D000008C2DE9804C70B49A46934691E83800EC
:1038E00007C810F0804F08BF13F0804F03D100F0DD
:1038F00005F8FFF76BFFF0BCBDE8008C20F07F47B8
:1039000023F07F4C80EA030000F0004007EB0C033B
:10391000A3F57C53A3F1FE0392F0000F00F0B380F7
:1039200095F0000F00F077802DE901494FEA114032
:1039300021EA00484FEA144624EA064700FB06FC49
:1039400008FB06F607FB08F818EB06484CEB164C8C
:1039500000FB07F718EB07484CEB17404FEA124BF8
:1039600022EA0B4E4FEA154625EA06470BFB06FCFA
:103970000EFB06F607FB0EFE1EEB064E4CEB164C3E
:103980000BFB07F71EEB074E4CEB174B18EB0B0826
:1039900040F1000018EB0E0B58EB000840F100005E
:1039A0008F1A4FF000014FF000063CBFC943661B61
:1039B00014BFB5EB040C00213CBFC943F61B4FEA12
:1039C000174427EA04454FEA1C472CEA074C04FB3E
:1039D000076205FB07F70CFB05F616EB074642EB03
:1039E000174204FB0CFC16EB0C4642EB1C421BEB93
:1039F000060658EB020241414EEA8E0E46EA9E064A
:103A000001D5BDE80189B619524141EB0101A3F18D
:103A10000103BDE801894FEA144524EA05464FEA4F
:103A2000114721EA074C05FB07F406FB07F70CFBDF
:103A300006F111EB074144EB174405FB0CFC11EBBD
:103A40000C4144EB1C444FEA124722EA074C05FBA9
:103A500007F206FB07F70CFB06F616EB074642EBF0
:103A6000174205FB0CFC16EB0C4642EB1C456A1892
:103A700054F1000148BF7047B619524141EB0101B2
:103A8000A3F10103704795F0000F37D04FEA1142C0
:103A900021EA02464FEA144724EA074C02FB07F1E9
:103AA00006FB07F70CFB06F414EB074441EB174148
:103AB00002FB0CFC14EB0C4441EB1C414FEA154794
:103AC00025EA074C02FB07F506FB07F70CFB06F699
:103AD00016EB074645EB174502FB0CFC16EB0C46B4
:103AE00045EB1C42121951F1000148BF7047B6194D
:103AF000524141EB0101A3F1010370474FEA144524
:103B000024EA05464FEA114721EA074C05FB07F175
:103B100006FB07F70CFB06F212EB074241EB1741DD
:103B200005FB0CFC12EB0C4251EB1C414FF0000664
:103B300048BF7047921841EB0101A3F101037047A0
:103B40000149C86070470000000000200149086179
:103B500070470000000000204FF478414FF4FC62F1
:103B600001EA102102EA50121143C0F3C4000143DC
:103B7000114810B4C2682AB94FF47F4202EA012208
:103B800042EA11218268D2E90BC4936C906B04FB6A
:103B90001C339C45C8BF1846401E3CBF10BC704734
:103BA000936B8342DCBF10BC7047536B23F810103B
:103BB000401EF5D210BC70470000002070B5DFF841
:103BC00050C09042BCF80440A5B2D4BF994270BD29
:103BD000DCF80C40002C08BF6DBADCF808C00024EB
:103BE000CCF82400CCE90402CCE90613101A591AC7
:103BF000401C491C00FB01F6002ED8BF70BD2846B2
:103C000000F076FA00281CBF641CB442F7DB70BDDC
:103C10000000002070B5034615489142B0F804C07A
:103C20001FFA8CF5C8BF70BDD0F814C0BCF1000FEE
:103C300008BF70BDC468002C08BF6DBA03EB0C044C
:103C40008068641E4162103080E81E00501A401CDB
:103C500000FB0CF60024002ED8BF70BD284600F0F3
:103C600047FA00281CBF641CB442F7DB70BD00009B
:103C70000000002070B52A4C4FF00005A06890F8B5
:103C80004C1011F0010F0BD1056205630560026C49
:103C9000C0E90125826A41F00301C26080F84C103E
:103CA000426C816891420DDB056290F84C1021F066
:103CB000010180F84C102069002808BF70BDBDE8E4
:103CC0007040004790F84C00C0F34000FDF7DEFC68
:103CD000A06890F84C1021F0020180F84C100560AB
:103CE000826A816811448160C3681A44C260026BB1
:103CF000521C0263426C91420ADB891A036C826B8C
:103D0000406BBDE8704001FB13214900FDF7F8BE90
:103D1000816B406BBDE870404900FDF7F1BE0000CB
:103D20000000002010B4019CC0E910124A438264D4
:103D300090F84C20C46322F0040C620892FBF1F26C
:103D40004363826202FB01F383630023C0E9003115
:103D5000C0E9023203632CF0010380F84C30514378
:103D6000C1620249886010BC70470000000000205A
:103D70002DE9FF4F9B464FF478424FF4FC6302EA73
:103D8000112203EA51131A43C1F3C401114391B044
:103D9000A04A0D91A0F12003118B5E2B89B20E91E8
:103DA00011680A9111460968D1F8C4109DBF0A9B99
:103DB00003EB400030F83C0C0A9888BF008C0E18CA
:103DC000002430780225A146A246022840F31E8135
:103DD00090480BEB0A018068406C814200F3168129
:103DE0000A98007810B1012832D047E031780027D6
:103DF000A94213DD705D09F118029040B0FA80F01D
:103E00000828C8BFC9F1080007448144B9F1080F68
:103E100004D16D1C4FF00009A942EBDC4FF0000803
:103E2000A9422BDD705D09F118029040C043B0FA41
:103E300080F00828C8BFC9F1080080448144B9F166
:103E4000080F1BD16D1C4FF00009A942EADC15E0F8
:103E5000705D20B1070900F00F086D1C0EE07019AD
:103E6000407810F0800F05D0400600274FEA9058A8
:103E7000AD1C5CE0C7004FF00008AD1C002F56D011
:103E8000644B0BEB0A0099684A6C82424FDB012FAE
:103E900026DD727804F1010C624521DD04EB070C8C
:103EA0009445D4BF3A46121B0292002814DB91F8C5
:103EB0004C1011F0040F0FD056490E9A49680B911F
:103EC00054494A601399029A21440A44521EFFF74A
:103ED000A1FE50480B99416002983F1A04441EE02D
:103EE000139A121919D4D1F840C09445A8BF0028DC
:103EF00013DB91F84CC01CF0040F0ED04A620A612B
:103F0000C1E90520C861D868002803BF0E9840BAEF
:103F10000F900F9800F0ECF8C8B3641C7F1E707807
:103F2000A04204BF00240AF1010A002FA8D1B8F171
:103F3000000F67D0374A0BEB0A0091684B6C834245
:103F400060DBB8F1010F27DD737804F1010C6345E4
:103F500022DD04EB08019942D4BF4146191B0291AE
:103F600000280FDB2B492B4A49680B910D995160B2
:103F70001399029A21440A44521EFFF74BFE25482A
:103F80000B9941600298A8EB0008044431E0FFE778
:103F900015B00120BDE8F08F139B1B1926D4D1F872
:103FA00040C09C45A8BF002820DB0B9396F801C0B9
:103FB000139B0AF1010E634404F1010C9C44337815
:103FC0005B449E440B9B4B620B9BC1F81CE00B6156
:103FD000C1E905C00D980F90D068002803BF0D9867
:103FE00040BA0F900F9800F083F878B1641CA8F1E4
:103FF00001087078A04204BF00240AF1010AB8F158
:10400000000F97D13078A8423FF7E2AE707815B034
:10401000BDE8F08F000000202DE9F05F1C46174638
:104020008B460646FCF77EFADFF86CA0C1B23D462F
:10403000DAF80080B1F1010938BFBDE8F09F00BF98
:1040400016F8010B0D2808BF3D4620D00A2804BFF2
:1040500098F8020004441AD0DAF8081098F80130F1
:104060000A6CD21AAA4203DC98F802203D46144496
:10407000C968A142B8BFBDE8F09F23462A46594609
:10408000FFF776FE002814BF0544BDE8F09FB9F1A4
:104090000109D5D2BDE8F09F000000204FF478411F
:1040A0004FF4FC6201EA102102EA50121143C0F3FE
:1040B000C400084301494860704700000000002028
:1040C0000149086070470000000000204FF478416B
:1040D0004FF4FC6201EA102102EA50121143C0F3CE
:1040E000C4000843014988617047000000000020B7
:1040F0001C4989688B68CA69934204DCD1F80CC0FA
:104100008A69624501DD0020704710B4D1F800C013
:104110004C69A44512DCD1F810C04C68A4450DDCF4
:1041200093420EDCD21A0B6C02FB03C20A628B6B49
:104130009342C4BF4B6B23F8120002DC10BC00207A
:104140007047D1E90402904205DB486A401E0861CD
:104150008869401C88610869401C086110BC012006
:10416000704700000000002003B40198410000984F
:1041700050EAC12018BF04204A0D18BF40F00100CA
:1041800040F2FF72B2EB515F08BF40F0020001281D
:1041900008BF052002B0704730380A2801D201203C
:1041A000704700207047000010B500290AD0087839
:1041B000002807D005487844FDF7F6F9002801D01B
:1041C000002010BD0248784410BD00006A3C000089
:1041D000623C000010B500290AD00878002807D0FA
:1041E00005487844FDF7E0F9002801D0002010BD13
:1041F0000248784410BD00005A3C0000523C0000C8
:10420000F1EE100A4FF6FF71C0F2C03120EA010052
:1042100040F04070E1EE100A7047FCF7CDBDFCF7AE
:1042200001BF0505000620090221111111113150AD
:104230000703321212F0400D06D11125211125215C
:10424000113111E00B068143315261611441901527
:104250000883212111113111113641111131111130
:104260002122F03011067231212111322111111158
:1042700011212311D00602211111D00B034111216C
:104280002121212121310C03313121212121212121
:104290001120080451231321F0700906F051513503
:1042A0003151F00703F0712111200403F2D0040210
:1042B000E1500B058131414131413141900D06D32F
:1042C000213111311131113123E00A05B22111419F
:1042D000414124B00905A44141313134B00905A45C
:1042E0004122514113C00B06E242311121212541E7
:1042F000E00905A41143514113C00B05B31144114A
:1043000021112122C00905A44131413141D00C05C0
:10431000A41121222112112114B00B05B221211167
:1043200021144113C005026171500703D18121118D
:10433000200905D122215251F0100705F05464F0F4
:10434000100A06F03262613222F010090443313162
:10435000222171A01208F0343141111311111111F1
:104360001111142184B00C06E242311131212411C3
:1043700031D00C05A41121132121112113C00B06EA
:10438000D322211151522123E00D06C421221131E3
:104390001131112214E009048311331131339009D2
:1043A00004831133113131B00C06D4122111512282
:1043B000122124D00E06C1311131151131113111E4
:1043C00031D00902411111111111500904A13131EB
:1043D000313113900D05A12111112232311121210A
:1043E000B00904813131313133901808F0123212A2
:1043F000321111111111111111111111111121216C
:10440000F0201106C22112211111111111111122D6
:104410001122D00E07F4223111411141113224F042
:10442000100B05A321211121132141E00F08F024D5
:1044300032312141214121323581900D05A32121C5
:1044400011211321211121B00905B3114252411349
:10445000C00906C53151515151F00E06C13111311B
:1044600011311131113123E00E07E14121213121B8
:1044700031115252F020170AF051313121212131EE
:104480001111113111111142125131F0800D06D16B
:10449000212111415231112131D00C06C13121119C
:1044A0003111415151F00905A44131314134B00B72
:1044B000033211212121212121220B05514151419A
:1044C00051414151600B033221212121212121122F
:1044D0000B0491211111111111F020050600066540
:1044E00006030131F0A00905F44114112114B00DA7
:1044F0000551414321211121112113C00804D2117A
:10450000313142900D0581412311211121112123C7
:10451000B00A05F0122121141153B00A04522123CC
:1045200021313131A00B05F4112114115311211443
:104530000E055141441121112111211121B009020F
:10454000213111111111500A034151212121212141
:10455000120E055141412111112231112121B00AC0
:104560000221111111111111501208F0971121217E
:10457000112121112121112121F0200C05F41121FB
:10458000112111211121B00C06F0432131113111FB
:104590003123E00D05F32121112111211321414087
:1045A0000D05F0131121112111212341410804C3EC
:1045B00011313131B00804C3114231139009049113
:1045C0002321313132900C05F121112111211121CA
:1045D00014B00A05F1211121223232C01307F06113
:1045E00021111112111112112111112121F0100AA2
:1045F00005F1212232322121B00D05F121211121B5
:104600001122414131300804C331212133900B0480
:104610005221313121413131320B0221111111115D
:10462000111111110C0331212121311121212120DE
:104630000905A2111112F0F01000000001080A088B
:10464000000005000E00150022002D00420053005E
:104650005900640070007800810088008C00900090
:104660009B00A800B200BB00C400CF00D800E3004C
:10467000EC00F800030108010F0118011F012901D6
:104680003201440150015C01670174017D01860122
:104690009201A001A901B201BF01C801E001F1012D
:1046A000FF010A02190226022F02380246025402B2
:1046B0006B02780284028D029802A302AE02B90254
:1046C000BE02C402CD02DA02E202EF02F9020303E3
:1046D0000E031C0325032F033D0347035903650302
:1046E00071037E038B0393039B03A403B003BA03FC
:1046F000CD03D703E403EC03F70302040E04000028
:1047000022420000050A001B401305A23232323259
:1047100032323232323232823322F0801208F012D8
:104720002222222222222221322132000E20210D99
:10473000F0F0C232623262324A3A52326141714121
:1047400062324B2B42326232623261410007101BEF
:104750000C52A2A19558425133A2A2B495A3A3A290
:10476000A22253294682A2A2F0403312F0F08461C3
:1047700061324252323262413172412272321291BE
:104780003211B412F2349131327222326232326119
:10479000423252423242613241840009302610F0E6
:1047A000F065988242824282428232A5B3525542DB
:1047B0004223323333223255435453454913554231
:1047C0000008200B04822222222131000730180623
:1047D000824241424242324242424242424242527A
:1047E00042425152422018066242515242425242C3
:1047F0004242424242424232424241424240140A12
:10480000D282521212331262631232121252820098
:104810000F50130C000802A2A2A2A26A2A62A2A24E
:10482000A2A20008200B0500094232323132319039
:104830000908000B06260009200905000932332269
:10484000F080190BF032928292928292919292822F
:10485000929282929192928292F050210CF0F09476
:104860007742423343226222622262226222622221
:10487000622262234242424774000650180BF0F055
:1048800072745312522292929292929292929259EE
:1048900029000560170CF0F085584243A2A2A292AD
:1048A000A292929292929A2A000620180CF0F08519
:1048B000584243A2A2926576B2B2A2A222532955CF
:1048C0000006501C0DF0F0F39494821272227222B2
:1048D00062326142524242524B2B92B2B2000717EF
:1048E0000CF0F0784842A2A2A668A3A2A2A2A2213C
:1048F0005338560006501C0CF0F0A467439292A265
:10490000A215493343226222622262324248550094
:104910000650150CF0F06A2AA292A292A292A293DB
:10492000929392939200071F0CF0F09476532342D7
:10493000424242432265847223424322622262231E
:104940004338560006401D0CF0F094683342326242
:10495000226222622343394512A2A2923153385572
:104960000006600D05F0F0532323F0C32323F070FD
:1049700010070006334343F0F0925252425152C0A6
:10498000120C000A028464646482A4A4A4A4A20099
:1049900007600D0C000C0A2AF0F08A2A000A601247
:1049A0000C000902A4A4A4A4A28464646482000884
:1049B00060170AF0654731438282828272546282B4
:1049C00082F03282820005603413000777AB746393
:1049D000539243231232322732322223322222339D
:1049E00032222232422222324222222332322B42ED
:1049F000332452F032F024619AB7F0C0200F000641
:104A000032C4B4A212A22292228242724271526A2B
:104A10005A52624282328223820007601F0CF0F0F9
:104A2000675842433252325232424759325322621D
:104A30002262226222532937000650180DF0F0D668
:104A400059335232A3A2B2B2B2B2B3B2B352496630
:104A5000000670210EF0F0C86A425432723273229E
:104A6000822282228222822282227322723254394C
:104A700058000760150AF0F82822828282873732B0
:104A8000828282828828F0F0C0140AF0F8282282FC
:104A9000828288282282828282828200061D0E0003
:104AA000056769435232C2B2C2C2462246228223FD
:104AB00072327234524A66000740230DF0F092724F
:104AC000227222722272227222722B2B2272227284
:104AD000227222722272227222720006601304C2B3
:104AE0002222222222222222222222222222F030CA
:104AF0001608F0D26262626262626262626262217F
:104B0000322634F0F050230CF0F06253224332424C
:104B1000423252226212757572127222622352332D
:104B2000424242523253000620150AF0F28282823B
:104B30008282828282828282828828F0F0C0391248
:104B4000000663A3248424842212621222126212B9
:104B500022126122222242222222422222322232A6
:104B60002232223222322232224442224442224340
:104B7000522252520009202D0DF0F093622452244B
:104B80005222124222124222223222223222322285
:104B90002232222242122242122254225422632220
:104BA0006300066021100006468A54534282338314
:104BB00022A222A222A222A222A223833282435430
:104BC0005A860008601B0BF0F0374832432252220D
:104BD00052225222432836529292929292000650CA
:104BE0002612000726AA74536282538342A242A26D
:104BF00042A242A242A24383528263547B9613F0A4
:104C000014F012F0F080210CF0F067584243325259
:104C10003252325232424847523342424243325277
:104C200032532262000620170BF0F0555733413201
:104C30009293949493939292224328460006160EE0
:104C4000F0F0CC2C72C2C2C2C2C2C2C2C2C2C2C2C4
:104C5000C2000770230DF0F092722272227222724B
:104C600022722272227222722272227222722353C2
:104C700033334965000710210EF0F0C282228222F0
:104C800073326242624253524262426232822282F2
:104C90002285A4A4B20007703A160008226372228B
:104CA00063623263624251125242421242524212D3
:104CB0004253321242623132326222322272223244
:104CC0002282124212821152119454A354A36300FF
:104CD0000B60220DF0F09263235242426232622254
:104CE000821284A39492127222633252433262324D
:104CF000630006601C0CF0F06262226232424242A3
:104D000052226222748492A2A2A2A2A2A2000660EF
:104D1000160CF0F06939A292939292939292939228
:104D200092AA2A0006201706C42422424242424286
:104D300042424242424242424242442420170BB283
:104D4000A29292A29292A292A1A292A29292A292D4
:104D500092A292D01706C4244242424242424242A8
:104D60004242424242424242242420160CF0F0A227
:104D70009484722172226132524242423262000FA6
:104D800020070E00230C2C20080662524252000D10
:104D9000170B00097557415292473823422252227D
:104DA000432944120005601F0CF092A2A2A2A2A205
:104DB0002449334232622262226222622262234208
:104DC000393215000640140A000914473241228284
:104DD00082828283413745F0F0D0200CF0F022A28D
:104DE000A2A2A245123932432262226222622262C8
:104DF00022622343394422000620150C000A75580C
:104E0000424322622A2A22A2B252395600063016A2
:104E100009F064454272725727427272727272725E
:104E20007272F0F0B01A0C000A7748332342424203
:104E3000424323564752B7592262226229564020E4
:104E40000BF0729292929292144833332252225271
:104E50002252225222522252225222520005601124
:104E600004C222A222222222222222222222F03044
:104E70001607F09252F0425252525252525252522D
:104E80005252522524301F0BF0729292929292430A
:104E9000223332234212647562135222523242424A
:104EA000325200056014048222222222222222226F
:104EB00022222222222222F0302712000F621434F2
:104EC0004816333523225252225252225252225233
:104ED000522252522252522252522252520009203F
:104EE0001C0B000952144833332252225222522200
:104EF000522252225222522252000560190D000BFA
:104F000065694252327222722272227222723252C7
:104F100049650007101D0C000A42244933423262E1
:104F20002262226222622262234239321452A2A2F7
:104F3000A2A01D0C000A65123932432262226222AD
:104F400062226222622343394422A2A2A2A2201337
:104F5000080007021326235262626262626262F0F4
:104F6000F0801409000814372241227474737221EE
:104F7000422734F0F0A01509F0F0827272572742F0
:104F80007272727272727554F0F0801C0B000952CA
:104F90005222522252225222522252225222522370
:104FA000333844120005601A0C000A426222623251
:104FB000424242424252226222621284849200069B
:104FC000602912000F62525222525232343242345D
:104FD00032423432522122216212221262122212F1
:104FE000743112734383430009501A0C000A524370
:104FF00033325222721274938472226222524233EA
:10500000430006201D0C000A4352325232524232F3
:1050100052325232621272127212839392A2A2928E
:1050200070120900077727627262627262627727E4
:10503000F0F0801808B344426262626262534353E4
:1050400063626262626262626453201803312121EA
:105050002121212121212121212121212121212140
:105060002121201808835462626262626272635373
:105070005252626262626262444350120D000654F0
:1050800042353223212322353243001550000000DF
:10509000011316120000050018002A004B006600DC
:1050A0009900BF00CA00E200FA000E0121012C01A4
:1050B00035013E01570178019001A701BF01DB01D5
:1050C000F2010E02230242025F026C027C028E0297
:1050D0009B02AD02C402F802180337034F037003AA
:1050E00085039903B603D903EC03020425043A04AB
:1050F0007304A004C104DC04020523053A0550052D
:1051000073059405CE05F0050C06220639065006F7
:1051100067067D0684068C06A306C206D606F6063A
:105120000B0721073B075B076C078207A107B50741
:10513000DC07F80711082E084B085E08720887087C
:10514000A308BD08E60800091D092F0947095F09E2
:105150007709000004470000000000000000000084
:10516000303132333435363738394142434445469D
:105170004030580030313233343536373839616297
:105180006364656640307800040000080000000099
:105190000000000200010000103031323334353697
:1051A0003738396162636465667870003031323354
:1051B000343536373839414243444546585000006B
:1051C00002400000000000A00000000005400000B8
:1051D000000000C8000000000C4000000000409CDF
:1051E00000000000194000000020BCBE00000000CC
:1051F00034400000BFC91B8E00000004B540000011
:10520000504BCFD06607E2CF010000006C41000098
:105210003E8251AADFEEA73401000000D94200000F
:10522000DCB5A0E23A301F97FFFFFFFFB445000056
:10523000FD25A0C8E9A3C14FFFFFFFFFFF3F00000E
:105240000000008000000000FF3F00000000008020
:10525000000000000000000000000000000300004B
:10526000C0000000C0030000300000003003000058
:1052700000000000000C0000000F0000C00C000047
:10528000C00F0000300C0000300F0000CF00000005
:10529000000000003F00000033000000F0000000AC
:1052A000F3000000FF00000000000000FF0000000D
:1052B000F000000000000000010E110D00000500CC
:1052C0001300200039005200780092009B00AD00CE
:1052D000BF00C900D700E100EA00F10001011A0196
:1052E0002C013F01530168017C019301A401BB0122
:1052F000D201DA01E501F50100020F0222024F029C
:10530000690280029502AD02BE02CF02E6020103ED
:1053100010032303400351037A039B03B303C60323
:10532000E203FB03100421043C04560481049A04A4
:10533000B004C104D304E304F50403050A05110510
:1053400025053D054F05670579058A05A305BC05BB
:10535000CA05DB05F305020622063A064F06680673
:1053600080068F06A106B106C906DF0601071707EA
:105370002F073F075107630775070000CC5F000048
:10538000000000000000000000000000000000001D
:10539000000000000000000000093D0000803E0009
:1053A00000004B00404B4C0000204E00808D5B0005
:1053B00000C05D000080700000127A0000007D00D7
:1053C00080969800001BB7000080BB00C0E8CE00AC
:1053D000647ADA000024F4000000FA0080A81201C8
:1053E000002D310100366E0140787D01010D100F56
:1053F0000000040013001A0030004D0070008D0002
:105400009400A500B600CE00DE00E700F000F70033
:105410000A012B013C015301690182019C01B70182
:10542000CB01EB01070213022102310241025102BA
:1054300068028702A502C502DA02FA0211032703F5
:105440004203610376038D03AC03BF03E20303044D
:1054500020043A045D047C049304A704C704E50413
:105460000A0527053F055405650576058B059B054F
:10547000A305AC05CA05EA05FF051F0636064C065E
:10548000670686069B06B206D106E40607072807CC
:1054900045075F078207A107B807CC07EC070A0892
:1054A0002F084C08640879088F08A008B20800008B
:1054B0000C570000010E110D0000050012001F0026
:1054C00039005A007F009F00A700B800CA00D5002D
:1054D000E300ED00F500FB000D01270136014B0153
:1054E0006001750188019F01B201CC01E301EA016D
:1054F000F40102020C021A022C025B0275028E02F7
:10550000A502BF02D902F0020A03250334034803AF
:1055100064037803A303C603E003F50310042A041D
:105520004104560470048A04B504CF04E504FB0466
:105530000C051E052F05400547054E0563057C0536
:105540008D05A605B805C905E005F9050706180685
:1055500031064106600677068C06A406BC06CD0619
:10556000E106F00607071D073D0752076B077E0798
:105570009007A207B40700004D6700000110110D4D
:1055800000000500130020003A0057007D0099003C
:10559000A200B400C600D400E200ED00F600FF0057
:1055A0001101280139014D016201760189019E0135
:1055B000B101C701DC01E701F40102020E021C0285
:1055C0002F025F0275028B02A002B802CF02E60230
:1055D000FE02180327033B03550369038F03AC0343
:1055E000C303D703F00308041F0434044E04660405
:1055F0008A04A304B904CF04E004F20403051205ED
:105600001905210535054C055E05750587059905C4
:10561000AD05C305D205E405F905080621063506E2
:1056200048065D06730684069506A606BC06D006E7
:10563000EC06020719072A073B074C075E07000024
:105640000C6F0000010D120C000005001000180086
:105650003300540077008F009600A700B800C900FF
:10566000D900E300EB00F200020117012701380125
:105670004501590169017E019301A901C301CB01D3
:10568000D601E501EF01FD010A022E0245025B028F
:105690006F0284029502A502BA02D302DF02F2026F
:1056A0000A031B033A03540369037D039603AC0307
:1056B000BC03CA03E403F90318042E0447045B0483
:1056C0006B047B048B0496049D04A504BB04D404E2
:1056D000E604FE040E0523053C05550566057C051C
:1056E0009705A705C805E005F5050C06250635064E
:1056F0004306520667067B069506A806CA06D80624
:10570000E906FC060C07000076760000040900128A
:105710000F0402222222222222222222A222A007D7
:1057200006C424000920160CF0B22262224A2A4242
:105730002262224A2A422262220006401D0DF032D5
:10574000B28216421622326232821462149222729D
:10575000222414441492B2F040230EF012525252FA
:1057600032222242222262228222B2C2A232723229
:1057700062222242222222624262F0301D0DF49403
:10578000724252425222722292B292223222223229
:105790002242524274324432F00704822200062030
:1057A0001106824222424242424242424242624206
:1057B00080110662426242424242424242424222D8
:1057C00042A0180C0006026222624222622282A2D9
:1057D0008222622242622262F0B0100C000642A2D3
:1057E000A2A26A2A62A2A2A2F0F009050007523220
:1057F000223230090A000B21160007600703F0F07F
:10580000912150130DF072B2A2B292B2A2B292B232
:10581000A2B292B2F090210DF0167642722272225C
:1058200054225422322222322222124222124222B4
:105830007222725676F020110884446262626262BB
:1058400062626262624626A0170DF214621442720E
:105850002272B2B2749462B292B2B4162416F016E6
:105860000DD218221892B292B2D2B2D2B2227222C1
:10587000725676F020190DF052B294946232623270
:10588000425242524416241692B2B2B2F0201A0D7D
:10589000D416241622B2B4144414D2B2B2B2227274
:1058A000227242146214F0201B0DF0349462B29202
:1058B000B2B41444144272227222722272421462EE
:1058C00014F020140DD4162416B2B2B2B27494920D
:1058D000B2B2B2B2B2F040200DF21462144272229F
:1058E0007222722272421462144272227222722254
:1058F0007242146214F0201C0DF2146214427222DF
:10590000722272227242164216B2B2B2B2421462CD
:1059100014F0200C06F094242424E4242424E00E23
:1059200006F094242424E42424244242201008F085
:10593000F062624262426282628262F030100D0066
:105940000966142614000666142614F0D01008F018
:10595000F022628262826242624262F070170DF04F
:105960001676427222722272227292B292B2F0F0D3
:1059700072B2F0401F0DF21462144272227222368B
:1059800022362232222232222236223622B2D21667
:105990004216F01E0DF032B2823262324272227230
:1059A000227222722416241622722272227222720B
:1059B000F0200DD4144414625242524252425242D8
:1059C000146214625242524252425224144414F05D
:1059D00020150DF216421622B2B2B2B2B2B2B2B273
:1059E000B2D2164216F0200DD41444146252425220
:1059F0004252425242524252425242524252425207
:105A000024144414F020170DD416241622B2B2B276
:105A1000B416241622B2B2B2B4162416F0160DD45F
:105A200016241622B2B2B2B412641262B2B2B2B288
:105A3000B2F0901B0DF216421622B2B2B2B236226A
:105A400036227222722272227242164216F01F0D04
:105A5000D2722272227222722272227224162416AA
:105A6000227222722272227222722272F01509941C
:105A70001224124272727272727272727254122410
:105A800012B0170DF0367692B2B2B2B2B2B2B242E2
:105A900052425262128212F0401F0DD272227222C2
:105AA0005242524232623264126412625242524292
:105AB00072227222722272F0130DD2B2B2B2B2B25C
:105AC000B2B2B2B2B2B2B4162416F0230DD2722220
:105AD00072243424342232222232222232222232EE
