:020000040000FA
:10000000882C0020E5030000ED030000E518000047
:10001000F1030000F3030000F503000000000000FE
:10002000000000000000000000000000F7030000D6
:10003000F903000000000000FB0300003D28000061
:10004000FF03000001040000030400000504000099
:1000500007040000090400000B0400009D210000BB
:100060000F04000011040000130400001504000038
:1000700017040000190400001B0400001D04000008
:100080001F0400002104000023040000892C00004C
:1000900027040000290400002B0400002D040000A8
:1000A0002F04000031040000330400003504000078
:1000B0003704000039040000411600003D04000030
:1000C0003F04000041040000B1210000450400008D
:1000D00047040000490400004B0400004D040000E8
:1000E0004F04000051040000000000005304000011
:1000F0005504000057040000590400005B04000090
:100100005D0400005F04000061040000630400005F
:10011000000000000000000065040000670400000B
:1001200069040000C5210000D92100006F0400000F
:1001300071040000730400007504000077040000DF
:1001400000000000000000000000000000000000AF
:10015000790400007B0400007D0400007F0400009F
:10016000000000000000000000000000000000008F
:10017000000000000000000000000000000000007F
:10018000000000000000000000000000000000006F
:10019000000000000000000000000000000000005F
:1001A000000000000000000000000000000000004F
:1001B000810400008304000085040000870400001F
:1001C000890400008B0400008D0400008F040000EF
:1001D00091040000930400009504000097040000BF
:1001E000990400009B0400009D0400000000000032
:1001F000000000009F040000A1040000A304000010
:10020000A5040000A704000000000000000000009A
:10021000A9040000AB040000AD040000AF0400001E
:10022000B1040000B3040000B5040000B7040000EE
:10023000B9040000BB040000BD040000BF040000BE
:10024000C1040000C3040000C5040000C70400008E
:10025000C9040000CB040000CD040000CF0400005E
:10026000D1040000D3040000D504000000F002F81F
:1002700000F0A8F814A696E8000CB244B344DA459E
:1002800001D100F09FF8BAE80F000FA696E8300001
:10029000A5EB040504EB0607AAEB0704A7F1010789
:1002A0004FEA15154FEA3414A4F10104AC4201D30E
:1002B00000F088F813F0010F18BFFB1A43F0010398
:1002C00000F001F8DBE718474851000068510000D2
:1002D000103A24BF78C878C1FAD8520724BF30C872
:1002E00030C144BF04680C607047000070470000D4
:1002F0000023002400250026103A28BF78C1FBD82F
:10030000520728BF30C148BF0B6070476E2900F00C
:10031000A181702900F0EF82662904F0C08465296C
:1003200004F0BD84672904F0BA84612904F0B9841B
:1003300003681B0A28BF41F08001692900F04E8143
:10034000642900F04B81752900F048816F2900F085
:100350007D82782900F0BB82E92900F01782E42928
:1003600000F01482F52900F01182EF2900F07A8262
:10037000F82900F0BA820368DB0928BF41F0800148
:10038000632900F0BB87732900F0C087E32900F0E0
:10039000CB87F32900F0D087002070471FB504F009
:1003A0006CFC01F023F804000020002104F00CF89C
:1003B000401C60600020002103F0F0FFE0601FBDE2
:1003C00010B510BD00F0E4FF1146FFF7E7FF03F0A2
:1003D0007BF801F0C1F803B4FFF7F2FF03BC01F0B2
:1003E00009F900003F4880473F480047FEE7FEE725
:1003F000FEE7FEE7FEE7FEE7FEE7FEE7FEE7FEE7D5
:10040000FEE7FEE7FEE7FEE7FEE7FEE7FEE7FEE7C4
:10041000FEE7FEE7FEE7FEE7FEE7FEE7FEE7FEE7B4
:10042000FEE7FEE7FEE7FEE7FEE7FEE7FEE7FEE7A4
:10043000FEE7FEE7FEE7FEE7FEE7FEE7FEE7FEE794
:10044000FEE7FEE7FEE7FEE7FEE7FEE7FEE7FEE784
:10045000FEE7FEE7FEE7FEE7FEE7FEE7FEE7FEE774
:10046000FEE7FEE7FEE7FEE7FEE7FEE7FEE7FEE764
:10047000FEE7FEE7FEE7FEE7FEE7FEE7FEE7FEE754
:10048000FEE7FEE7FEE7FEE7FEE7FEE7FEE7FEE744
:10049000FEE7FEE7FEE7FEE7FEE7FEE7FEE7FEE734
:1004A000FEE7FEE7FEE7FEE7FEE7FEE7FEE7FEE724
:1004B000FEE7FEE7FEE7FEE7FEE7FEE7FEE7FEE714
:1004C000FEE7FEE7FEE7FEE7FEE7FEE7FEE7FEE704
:1004D000FEE7FEE7FEE7000004480549034A054B36
:1004E00070470000792B00006D0200008822002078
:1004F000882C0020882200200FB4044910B503AADC
:10050000029800F0D3F810BC5DF814FBA0000020A6
:1005100070477047704770B5044685690068C1062A
:1005200001D5302600E02026C00707D070BDD4E9F1
:10053000012130469047206A401C20626D1EF6D58E
:1005400070BD70B5044685690078C00707D170BDDD
:10055000D4E9012120209047206A401C20626D1EB2
:10056000F6D570BD09684A0501D540B27047C90586
:10057000FCD500B2704709684A0501D5C0B2704782
:10058000C905FCD580B2704770B50C460546012AF6
:1005900005D02878800600D5EA69002302E001230F
:1005A00005E05B1C934202D2E05C0028F9D1A86907
:1005B000E618C01AA861286A184428622846FFF77E
:1005C000AAFF04E0D5E9012114F8010B9047B442D9
:1005D000F8D32846FFF7B5FF70BD00002DE9F041C4
:1005E0000646002410687529314616A510D0FFF77D
:1005F000B9FF002802DA404213A507E031688A07F4
:1006000001D512A502E0490704D511A5012401E096
:10061000FFF7B1FF00210A2206F1240709E0B0FB31
:10062000F2FCB0FBF2F302FB1C00303078541846A9
:10063000491C0028F3D123462A463046BDE8F04144
:1006400000F06DBA000000002D0000002B0000003B
:100650002000000011680268006A530501D5087087
:100660000AE0D30501D5088006E0130603D5C217BA
:10067000C1E9000200E008600120704701694A1CDE
:1006800002610878704700B58FB0CDE901310021D3
:10069000059105497944CDE903101146684600F0FB
:1006A00035F90FB000BD0000E5FFFFFF074B70B547
:1006B0000D467B44FFF7E7FF0446284600F040FE66
:1006C00010B14FF0FF3070BD204670BD332C0000DC
:1006D0002DE9FF5F15468A460446DFF8AC80F844F2
:1006E0000027D8E900103E46CDE9001010E03AF8A6
:1006F00016106A4602A800F027FE411C07D0217898
:10070000890603D5E269391891420DD80744761C51
:100710002078800602D5E069B84205DDAE42E6DB0E
:100720003AF816000028E2D1A069C01BA06120465B
:10073000FFF7F1FED8E90010CDE90010002017E026
:100740003AF818106A4602A800F0FEFDB0F1FF3F2B
:1007500081460BD000250DF1080B05E0D4E90121FD
:100760001BF8050090476D1C4D45F7D308F10100BB
:10077000B0428046E4DB206A384420622046FFF71E
:10078000E0FEBDE8FF9F0000A64A00002DE9F04111
:100790008046D21D22F007020025D2E90002F52989
:1007A00015A614D0011E72F1000106DA0023D0EB69
:1007B000030063EB020211A608E0D8F800108B07D3
:1007C00001D50FA602E0490701D50EA60125114665
:1007D000002408F1240704E000F05CF930323A55B7
:1007E000641C50EA0102F7D12B46324621464046AE
:1007F000BDE8F04100F093B9000000002D000000BA
:100800002B0000002000000030B4002100F124047F
:1008100008E002F00705D208303542EA4372DB08EF
:100820006554491C52EA0305F3D10468002310A261
:10083000250708D504F020040C4304D0C469012323
:100840000CA2641EC46130BC00F069B910B5044646
:1008500021461068FFF78FFE02462046BDE8104093
:100860000023D1E7D21D22F00701D1E90023CBE715
:100870000000000030000000F0B40D4601880905BA
:1008800002D5214C7C4402E01F4C7C440E340021F4
:1008900000F1240608E002F00F071209E75D42EAC2
:1008A00003721B097754491C52EA0307F3D10278FB
:1008B0000023120704D5702D06D009B1022311348C
:1008C0002246F0BC00F02BB901231034F8E770B5D4
:1008D00004460D4621461068FFF74DFE02462946A4
:1008E0002046BDE870400023C6E7D21D22F0070372
:1008F000D3E90023C0E70368126843F020030360D4
:100900000823C3610023B7E7084900002DE9F05F21
:10091000894604464FF0000ADFF874B1FB44C0F882
:1009200020A02046E1688847002874D0252806D0FA
:10093000D4E901219047206A401C2062F1E700269B
:100940005F462046E16888472028054607DB312DB1
:1009500005D2781910F8200C08B10643F1E7B0076A
:1009600001D526F00406C4F81CA00027C4F818A07E
:100970002A2D09D0284603F009FD38B304EB870877
:10098000303DC8F8185019E059F8041B204604EB14
:1009900087029161E1688847012F054618D1E06917
:1009A000002820DA26F020061DE0D8F8180000EB19
:1009B000800005EB40003038C8F818002046E16898
:1009C0008847054603F0E2FC0028EED1012F0AD04B
:1009D0002E2D08D12046E16888477F1C0546022F4E
:1009E00046F02006C4DBA069002803DA404246F046
:1009F0000106A061F00701D026F010066C2D0BD087
:100A0000682D09D04C2D39D06A2D35D0742D35D0B4
:100A10007A2D33D016E038E0E1682F46204688472B
:100A2000B842054609D16C2F26D04FF48060E168AA
:100A3000064320468847054604E06C2F1AD04FF441
:100A4000807006430DB3A5F14100192802D8203566
:100A500046F400664A462946204626604E46FFF781
:100A600055FC80B101280BD0F61D26F0070000F1DF
:100A7000080956E74020E4E78020D8E70020D6E7C1
:100A800006F104094DE7284652E7206ABDE8F09FC9
:100A90009848000030B5B0F10A0271F100034FEA46
:100AA000900E4EEA817EB0EB0E0061EB91014FEAB1
:100AB000101E4EEA017E10EB0E0041EB11114FEAC1
:100AC000102E4EEA016E10EB0E0041EB11214FEAA1
:100AD000104E4EEA014E10EB0E0041EB1141401852
:100AE00041F100014FEAD00040EA41704FEAD101E4
:100AF0004FEA810444EA907410EB800544EB010452
:100B00006D1944EB0404521BA3414FF0000348BF8E
:100B10000A3200D530BD401C41F1000130BD2DE945
:100B2000F0470D4699469246044600F124080168B4
:100B3000880604D5E06921F01001216000E0012061
:100B4000A84201DD471B00E00027A1697A1902EBEA
:100B50000900081AA0612078C00602D42046FFF7D9
:100B6000DAFC002608E0D4E901211AF806009047D3
:100B7000206A401C761C20624E45F4DB2078C006BB
:100B80000AD52046FFF7C7FC06E0D4E90121302052
:100B90009047206A401C2062381EA7F10107F4DC50
:100BA00007E0D4E9012118F805009047206A401CAD
:100BB0002062281EA5F10105F3DC2046FFF7C1FCE9
:100BC0002078000602D50220BDE8F0870120FBE76F
:100BD0002DE9FF4F0C461E464FF0FF378BB0D2E990
:100BE0000001DDF860800A908A46C1F30A5505B914
:100BF0003D46002108464FF00000BAF1000F00F416
:100C0000400005DA00EB80004FF4400101EA50009B
:100C10004FEA9059B9F1010F00DDB9460A9850EA40
:100C20004A000ED044F61050A5F2FF3545432F146C
:100C3000B8F1000F1ED07542291E1EDDC9F1000259
:100C40001CE0B8F1010F4FF0000001D0302103E0AB
:100C5000F24305E02154401CB042FBDB3046002249
:100C6000002121540B99C1F80880C1E900200FB080
:100C7000BDE8F08FBD1B6D1CDEE74A4600DA694215
:100C800006A800F0F7FB06AB93E8070003AB83E888
:100C9000070050460A9902F01DFF8DE80700A0F5F5
:100CA00000501F3800900398002D0ADD42F21F010A
:100CB0004A460844002303A90390684603F086F9D6
:100CC00009E0A0F500504A461F38002303A903900D
:100CD000684603F090F98DE807000004000C03D08B
:100CE0004FF0FF30410800E01046B8F1000F03D08C
:100CF0000022009215461EE0751E05D4FFF7CAFEBD
:100D0000303262556D1EF9D5B3460122084302D038
:100D100000227F1C04E02078302801D100227F1EB1
:100D2000002A099784D01DE0112D07DAFFF7B2FEE3
:100D3000303262556D1C50EA0102F5D1084302D0F1
:100D40000098C8B10EE00021681E05E0235C625CDB
:100D500063542254401E491C8142F7DBAB46A81B5A
:100D6000401E0990002004F80B000B98099AC0F867
:100D70000880C0E9002B7AE711264FF0000857E7FA
:100D80002DE9F04F88460446D21D22F0070191B0AC
:100D9000D1E90001CDE90A0103F0E0FA02460B981F
:100DA000C00F01D02D2007E02068810701D52B203E
:100DB00002E0202101EAC000032A099001D0072A9D
:100DC00005DB03464146204600F014FB0BE120788A
:100DD000800601D5E06900E00620B8F1650F814684
:100DE00006D0B8F1660F18D0B8F1670F70D131E0B6
:100DF0000020B9F1110F009001DB112301E009F18E
:100E000001030AAA01A90CA8FFF7E2FEDDE90C70B4
:100E1000002609F10105834647E001204B4600907A
:100E20004FF000470AAA01A90CA8FFF7D1FEDDE99F
:100E30000DB00C995D46002610B909F101000D189E
:100E4000B9EB050003D4C0F1FF3609F10105A5EBAC
:100E500009002BE0B9F1010F01DA4FF00109002080
:100E6000B9F1110F0090484601DD112300E003465F
:100E70000AAA01A90CA8FFF7ABFEDDE90C704D46EC
:100E800000268346207800070AD4AB4500DA5D4689
:100E900001A8012D04DD411911F8011C302907D0EA
:100EA0004F4502DA17F1040F04DA012082460FE001
:100EB0006D1EEEE7002F02DCED1B3E4403E0781CC4
:100EC000A84200DD7D1CB81B00F1010A4FF000476D
:100ED0002078000703D4AA4501DB4FF0FF3A002138
:100EE000B7F1004F0DF143088DF8431024D00220D4
:100EF0002B23002F01DA7F422D230A21021EA0F1AD
:100F0000010000DC5FB197FBF1FC97FBF1F201FB04
:100F10001C7C17460CF1300C08F801CDEEE7A8F167
:100F2000010003702188090501D5452100E06521F4
:100F3000A0F1010800F8011C09980FA9A1EB08070E
:100F4000FF1D00B10120411901EBEA70A16938448D
:100F5000081A401EA0612078C00602D42046FFF780
:100F6000DAFA099828B1D4E901219047206A401C97
:100F700020622078C00622D52046FFF7CCFA1EE07A
:100F8000002E04DBB34502DD01A8805D00E03020C7
:100F9000D4E901219047206A401C2062761CAAF106
:100FA00001005FEA000A0AD100F020FAC068016877
:100FB000405CD4E901219047206A401C2062281E31
:100FC000A5F10105DCDC07E0D4E9012118F8010BEB
:100FD0009047206A401C2062381EA7F10107F3DC0D
:100FE0002046FFF7AEFA032011B041E62DE9F04F9D
:100FF00004460D46D21D22F0070089B0D0E90097C3
:101000004846394603F0AAF90246F80F01D02D23CD
:1010100007E02068810701D52B2302E0202101EAA7
:10102000C0038DF820300BB1012000E00020032A1E
:10103000824601D0072A04DB2946204600F0DAF96F
:101040003FE12078800601D40D2500E0E569C7F373
:101050000A560D2D49DA00214FEA175B08464FF07A
:101060000000002F00F4400007DA00EB80004FF48E
:10107000400100EBD07001EA60008115012901DD1B
:101080004FF0FF3100224FEA850CBCF1180F06D358
:101090001346ACF118004FF08052C24003E04FF409
:1010A000801323FA0CF30CF10C0CBCF1200F04D3C9
:1010B000ACF1200C09FA0CF001E007FA0CF0002961
:1010C0004FF0004801DD18B90FE00ED140450CD3B8
:1010D00019EB02095F4121B9404502D19F4329EA3A
:1010E0000209BBEB175F00D0761C2088000502D5F3
:1010F0007B48784402E07A487844193808AA3023BB
:1011000002F80A30037C0AF10101002E0AF1020AFA
:1011100053546A4602DC4FF0300101E04FF03101D8
:101120004FF001088DF8001002D0A6F2FF3603E060
:1011300059EA470100D06B4E002D02DC21780907E7
:1011400004D54FF002082E218DF80110C44600216D
:101150000BE0C7F303433F01C35C491C6D1E02F85B
:101160000830052908F1010801DA002DF1DC002121
:101170000CE000EB1973491C1B786D1E082902F85E
:1011800008304FEA091908F1010801DA002DF0DCF6
:1011900021688B0602D516E0A8F10108E04505DDBF
:1011A00002EB080313F8013C302BF5D0B8F1000F27
:1011B00009DD02EB080313F8013C2E2B03D10907CC
:1011C00001D4A8F10108002D05DD3E2102F8081028
:1011D0006D1E08F10108407C002E02F8080008F19D
:1011E000010804DA2D20764202F8080002E02B20E4
:1011F00002F808000A214FF47A70864208F10108CB
:101200000BDB96FBF0F3303302F8083096FBF0F37B
:1012100008F1010800FB136601E0642E0CDB64207A
:1012200096FBF0F3303302F8083096FBF0F308F148
:10123000010800FB136601E00A2E06DB96FBF1F0C5
:10124000303002F8080008F1010896FBF1F001FBCC
:101250001060303002F80800A16908F1010808EBBD
:10126000050202EB0A00081AA0612078C00602D429
:101270002046FFF750F9216A08AE01EB0A00206210
:1012800004E0D4E9012116F8010B9047BAF1010AF4
:10129000F7D22078C00602D52046FFF73CF96E460B
:1012A00009E016F8010B3E280FD0D4E90121904740
:1012B000206A401C2062B8F10108F2D22046FFF7F4
:1012C00040F909B00320BDE8F08F206A284420626D
:1012D00003E0D4E90121302090476D1EEBD3F8E7FD
:1012E000E640000002FCFFFF10B5436913B1AFF305
:1012F000008001E0FFF748F9012010BD127800F1ED
:1013000024010A7000224A700122EDE711684FF0B3
:10131000FF32E9E710B5436913B1AFF3008001E094
:10132000FFF7D6F9012010BD128800F12401828454
:101330000022C2840122EDE711684FF0FF32E9E795
:10134000007B00F0800070472DE9F04116460C4606
:10135000054600F043F8036893F80101012807D01F
:10136000FF2C12D8185D80B101202C70BDE8F081EF
:10137000D3F807013246214603F20713C71828465F
:10138000BC46BDE8F041002360474FF0FF30EDE779
:10139000754600F0EBF8AE4605006946534620F06E
:1013A0000700854618B020B5FFF796F8BDE8204045
:1013B0004FF000064FF000074FF000084FF0000B11
:1013C000AC46ACE8C009ACE8C009ACE8C009ACE880
:1013D000C00921F007018D467047000010B500F0EC
:1013E00005F8001D10BD00BFE12F00000048704748
:1013F000580000202DE9F0411F46044603260168ED
:10140000072A01F4006004DB08B116A505E016A563
:1014100003E008B115A500E015A521F0100020603B
:10142000A069C01EA0610FB1401EA0612046FFF759
:1014300072F84FB1D4E9012138469047206A401C28
:101440002062C01C206206E0206AFAE7D4E901218C
:1014500015F8010B9047761EF8D22046FFF771F879
:10146000BDE8F0814E414E006E616E00494E46006F
:10147000696E66002DE9F047814616468AB0354808
:1014800078440DC88DE80D0032487844801C03ACC8
:101490000DC884E80D0041F69B300844372190FBCD
:1014A000F1F290FBF1F5A5F1800501FB12041B3C64
:1014B00002D56442012000E00020DFF898A08046B9
:1014C0000027FA44AAF1BE0A0EE0E0070AD032462D
:1014D000684607EB470101230AEB810102F08BFD0F
:1014E0008DE8070064107F1C002CEED1194F7F445B
:1014F000AE3F19E0E80715D007EB04100DF1180A0C
:1015000090E80E008AE80E00C068F04201D19819F8
:1015100008903246012306A903A802F06CFD03AB34
:1015200083E807006D10641C002DE3D14FF0010328
:1015300032466946B8F1000F03A802D002F046FD1A
:1015400001E002F058FDC9E90001C9F808200AB01D
:10155000BDE8F087E83D000010B50446AFF3008019
:101560002046BDE81040FEF736BF00000048704737
:10157000380000200000000030B44FF0013C50F86B
:10158000042B51F8043BCCFA52F4D51A20D1FCB903
:1015900050F8042B51F8043BCCFA52F4D51A17D169
:1015A000B4B950F8042B51F8043BCCFA52F4D51AD4
:1015B0000ED16CB950F8042B51F8043BCCFA52F41C
:1015C000D51A05D1002CDAD030BC4FF0000070479E
:1015D00029BAB1FA81F111F01801D1F1200084404B
:1015E000F2D1CA40CB4012F0FF0213F0FF0330BC2F
:1015F000D01A704701491820ABBEFEE72600020052
:101600007047000081B000909DF80000C0060028DF
:1016100007D5FFE745F21C41C4F202011020086023
:10162000FFE79DF80000C00738B1FFE745F21C4115
:10163000C4F2020101200860FFE701B0704700001A
:1016400080B582B045F21440C4F2020000680190F7
:101650000198FFF7D7FF02B080BD000083B0029071
:101660008DF80710029900204876029A50604FF0DA
:10167000606111600299C86045F25550C0F655701E
:1016800088609DF80700013801460091042830D891
:101690000099DFE801F0030B1D14260002990020D9
:1016A00048610720C0F67870086123E002990020A5
:1016B00048614EF20700C0F6017008611AE0029915
:1016C0000020486149F60700C0F66170086111E02A
:1016D00002990020486149F60700C0F66070086171
:1016E00008E00299002048610720C0F66070086198
:1016F00000E0FFE702991C2008760C21C4F20301E8
:10170000086840F001000860FFE70298407E08B9D1
:10171000FFE7FAE703B0704710B5A8B027908DF83F
:101720009B108DF89A2045F28420C0F200000168D9
:1017300042688368D0F80CC0D0F810E04469249463
:10174000CDF88CE0CDF888C0219320921F9180695C
:10175000259045F2E43CC0F2000CCDF800C0DCF866
:101760000000DCF80410DCF80820DCF80C30DCF8B1
:1017700010E0DCF814401994CDF860E0179316924D
:1017800015911490DCF81800DCF81C10DCF820200F
:10179000DCF82430DCF828C0CDF878C01D931C920A
:1017A0001B911A9045F2A020C0F200000168426827
:1017B0008368D0F80CC0D0F810E044691294CDF8DA
:1017C00044E0CDF840C00F930E920D9180691390C4
:1017D00045F2BC2CC0F2000CCDF804C0DCF80000CF
:1017E000DCF80410DCF80820DCF80C30DCF810E041
:1017F000DCF814400794CDF818E0059304920391A7
:101800000290DCF81800DCF81C10DCF82020DCF872
:101810002430DCF828C0CDF830C00B930A9209912F
:1018200008909DF89A0027999DF89B20114488768E
:10183000279900224A604FF0784008602799CA60D3
:1018400045F25550CFF65550886027991F200876ED
:10185000279842769DF89A1014A850F82100C004E9
:101860009DF89B301FA951F8231040EAC110672151
:10187000CEF20001084327994A6108610C21C4F2A5
:101880000301086840F001000860FFE72798407EE8
:1018900008B9FFE7FAE72798002242769DF89A10E8
:1018A00002A850F82100C0049DF89B300DA951F802
:1018B000231040EAC1106721CEF2000108432799A6
:1018C0004A6108610C21C4F20301086840F001007C
:1018D0000860FFE72798407E08B9FFE7FAE728B0DD
:1018E00010BD000082B045F2D530C0F2000001907A
:1018F00001F0CAFC80B51E2001F05CFC80BD000038
:1019000081B00090009842F26421C2F200010860A8
:1019100001B0704782B00190009140F22C00C2F2F9
:10192000000000680199086040F23000C2F2000037
:1019300000680099086002B07047000010B594B0CC
:1019400013908DF84B10139842F27821C2F20001E7
:101950000860139843F28941C0F2000100F046FC90
:1019600044F2FC31C4F200010D91086840F0080017
:101970000860086840F0800008600520109001F0C1
:10198000BFFC0D9A1098116821F08001116001F0E0
:10199000B7FC0D9A1098116841F08001116001F0B8
:1019A000AFFC0D99086840F00800086001200E9017
:1019B00001F0C2FC0A20119001F0A2FC0E9801F087
:1019C000BBFC119801F09CFC112001F0B5FC7820C3
:1019D0000F9001F095FC292001F0AEFC0F9801F06A
:1019E0008FFC3A2001F0A8FC109801F0DFFC119860
:1019F00001F086FCB12001F09FFC40F2F400C2F23D
:101A0000000000210170062141700321817001F066
:101A100007FD119801F074FC362001F08DFC9DF853
:101A20004B0080B9FFE740F22C01C2F20001802098
:101A3000086040F23001C2F20001A02008601020CE
:101A400001F0B4FC3AE09DF84B0001280FD1FFE70C
:101A500040F22C01C2F20001A020086040F23002E6
:101A6000C2F200028021116001F0A0FC25E09DF887
:101A70004B00022810D1FFE740F22C01C2F2000116
:101A80008020086040F23001C2F20001A02008600E
:101A9000C02001F08BFC0FE040F22C01C2F20001EB
:101AA000A020086040F23001C2F2000180200860EE
:101AB000602001F07BFCFFE7FFE7FFE7B42001F0C7
:101AC0003BFC0020069001F071FCC02001F034FCCA
:101AD00040F2F400C2F2000007900221029101706E
:101AE0007022427001F09CFC0A200A9001F008FC70
:101AF000C12001F021FC0520009001F057FCC2201C
:101B000001F01AFC0299069A07980A9B037042702A
:101B100001F086FCC52001F00FFC029907983C22D9
:101B200002703822427001F07BFC0A9801F0E8FB59
:101B3000E02001F001FC009A029907980923037044
:101B40004FF0160C80F801C083702023C37021234E
:101B500003711B2301934371132309938371192389
:101B6000C37117230372152343721E2304938372D8
:101B70002B230593C3720423089303734273817369
:101B80000E21C1731021039101F04AFCE12001F004
:101B9000D3FBDDF804C0029A0399059B0798DDF892
:101BA00010E00B24047014240B94447008248470F7
:101BB00080F803E0222404711D24447118248471E8
:101BC00080F807E080F808C04FF01A0C80F809C0D0
:101BD0004FF0240C80F80AC0C372062303734373CA
:101BE00082730F22C27301F01BFC0A9801F088FB7C
:101BF0002A2001F0A1FB069A07980899027042700A
:101C0000827040F22C02C2F200021268013AC270E5
:101C100001F006FC059801F08FFB069A07980899D9
:101C200002704270827040F23002C2F2000212680A
:101C3000013AC27001F0F4FB099801F07DFB0A98AB
:101C400001F05EFB2C200C9001F076FB0B9801F06C
:101C500057FB292001F070FB782001F051FB0C9814
:101C600001F06AFB14B010BD80B54EF21C61C4F2E5
:101C70000F01086840F001000860FFE74EF61C20E5
:101C8000C4F20F000068C00708B9FFE7F6E74EF29C
:101C90001861C4F20F01086840F001000860FFE716
:101CA0004EF61820C4F20F000068C00708B9FFE71D
:101CB000F6E74EF20461C4F20F01086840F03F00FD
:101CC0000860FFE74EF60420C4F20F000068C0076A
:101CD00008B9FFE7F6E7FFE74EF60420C4F20F006D
:101CE00000688007002801D4FFE7F5E7FFE74EF61C
:101CF0000420C4F20F0000684007002801D4FFE769
:101D0000F5E7FFE74EF60420C4F20F000068000775
:101D1000002801D4FFE7F5E74EF20861C4F20F0195
:101D2000086840F03F000860FFE74EF60820C4F264
:101D30000F000068C00708B9FFE7F6E7FFE74EF6B7
:101D40000820C4F20F0000688007002801D4FFE7D4
:101D5000F5E7FFE74EF60820C4F20F0000684007E1
:101D6000002801D4FFE7F5E7FFE74EF60820C4F2AC
:101D70000F0000680007002801D4FFE7F5E7FFE740
:101D80004EF60820C4F20F000068C006002801D4F7
:101D9000FFE7F5E7FFE74EF60820C4F20F00006802
:101DA0008006002801D4FFE7F5E745F2245EC4F27F
:101DB000020EDEF8000040F00E00CEF8000045F202
:101DC000004CC4F2020CDCF8000040F00E00CCF82D
:101DD000000045F21C53C4F20203186840F00E00E4
:101DE000186045F22042C4F20202106820F00E0092
:101DF000106045F22051C4F2020144F24B30C4F6A7
:101E00004F400860DEF8001041F01101CEF80010DC
:101E1000DCF8001021F01101CCF80010196841F035
:101E200011011960116821F01101116045F22C5265
:101E3000C4F20202116821F01101116045F2105242
:101E4000C4F20202116841F01101116045F2104222
:101E5000C4F20202116821F01101116045F2084339
:101E6000C4F20203196821F01101196045F204431C
:101E7000C4F20203196821F01101196045F20C4304
:101E8000C4F202036FF011011960116841F01101F1
:101E9000116044F22051C4F20001086044F2004293
:101EA000C4F20002106840F0C800106044F21C51F7
:101EB000C4F20001086840F0C800086044F2204CF9
:101EC000C4F2000CDCF8000020F0C800CCF80000E0
:101ED00044F22C53C4F20003186840F6FF7EC0F2AF
:101EE000FF0E00EA0E001860086840F02400086049
:101EF000DCF8000040F02400CCF8000018684FF235
:101F0000FF0ECFF60F7E00EA0E001860186840F250
:101F1000002EC0F2200E40EA0E00186045F2004E7E
:101F2000C4F2000EDEF8000040F00200CEF800001F
:101F300045F21C5EC4F2000EDEF8000040F0020024
:101F4000CEF8000046F2204EC4F2000EDEF800008B
:101F500020F07000CEF8000046F2004EC4F2000EF1
:101F6000DEF8000040F07000CEF8000046F21C5E83
:101F7000C4F2000EDEF8000040F07000CEF8000061
:101F800046F2FC3EC4F2000EDEF8000040F07000A5
:101F9000CEF80000DCF8000040F00300CCF80000B0
:101FA000086840F00300086044F2285CC4F2000CAA
:101FB000DCF8000020F00300CCF80000186820F0E6
:101FC000FF001860186840F01100186047F20043E5
:101FD000C4F20003186840F00F00186047F21C5369
:101FE000C4F20003186840F00F00186047F2204365
:101FF000C4F20003186820F00F00186047F22C5359
:10200000C4F2000318684FF6FF7C20EA0C00186049
:1020100044F20043C4F20203186820F00E00186076
:1020200044F21C53C4F20203186840F00E0018601A
:1020300044F22043C4F20203186820F00E00186036
:1020400044F22C53C4F2020318684FF6F07C20EAE5
:102050000C00186044F21053C4F20203186840F0F8
:102060000E001860106840F010001060086840F022
:102070001000086044F2FC31C4F20001086820F04E
:102080001000086080BD000080B586B005900598FE
:10209000006804900498C0680390049880690290D6
:1020A0009DF80C004007002842D5FFE7049880689F
:1020B000ADF80600059890F82C00C00760B9FFE75E
:1020C0000598C06938B1FFE79DF80600059AD16907
:1020D00052698854FFE70CE00598406A40B1FFE779
:1020E000BDF80600059A516A526921F81200FFE70F
:1020F000FFE70599486901304861059840690599ED
:10210000896A884213DBFFE70499486920F00400DC
:1021100048610499486820F0020048600598006B07
:1021200020B1FFE70598006B8047FFE7FFE7FFE777
:102130009DF80C008007002805D4FFE79DF80C00EF
:10214000C00740B3FFE7059800690599896A88428E
:1021500006DBFFE70499486920F00800486119E0B0
:10216000059890F82C00C00738B9FFE705998869F1
:102170000969405C0499886007E00599086A096963
:1021800030F8110004998860FFE70599086901306B
:102190000861FFE7FFE706B080BD000080B542F2AE
:1021A0006820C2F200000068FFF76EFF80BD0000EB
:1021B00080B542F26820C2F200004068FFF764FF79
:1021C00080BD000080B542F26820C2F20000806845
:1021D000FFF75AFF80BD000080B542F26820C2F2CE
:1021E0000000C068FFF750FF80BD000083B0029080
:1021F00001910298009001980099086303B070471C
:1022000010B590B08C46864613981299CDF838E0F8
:102210008DF837C00C928DF82F308DF82E108DF878
:102220002D000E9804909DF8370001460391032875
:1022300028D80399DFE801F0020B141D48F20000D2
:10224000C4F2000009900720ADF82A001EE049F210
:102250000000C4F2000009902220ADF82A0015E029
:102260004AF20000C4F2000009902220ADF82A00D2
:102270000CE04BF20000C4F2000009902220ADF8FF
:102280002A0003E04FF0FF300F907FE10998049996
:102290000860BDF92A000499486004989DF8372029
:1022A00042F26821C2F2000141F82200099948680F
:1022B00020F0020048600999486820F00400486056
:1022C0009DF82F000146029150B1FFE702980128C6
:1022D0000CD1FFE70999086820F04000086009E088
:1022E0000999086840F04000086003E06FF00100C1
:1022F0000F904BE19DF82E0001460191022804D079
:10230000FFE70198032806D00BE00999086820F040
:102310008000086009E00999086840F080000860C2
:1023200003E06FF002000F9030E10999D1F8C80F77
:1023300020F00F00C1F8C80F0999D1F8C80FC1F8F3
:10234000C80F40F21C00C2F2000000680890089814
:102350000C9990FBF1F005900598012804DCFFE74B
:102360006FF004000F9011E10598FE2805DCFFE7EF
:10237000059806900020079017E0FE20069005992A
:1023800040F20940C8F2021050FB0111C81100EBE5
:10239000D170013807900798B0F5807F04DDFFE722
:1023A0006FF004000F90F1E0FFE70999086820F44E
:1023B0007F400860079A0999086840EA022008608F
:1023C0000698099908610999086820F00F000860CB
:1023D000079809990860049991F82C0000F0FE0014
:1023E00081F82C009DF82D000438014600910C283E
:1023F00000F2B7800099DFE801F0071019222B34B2
:10240000445464748494A4000999086840F003005B
:10241000086004990420C860A7E00999086840F0A2
:102420000400086004990520C8609EE009990868C6
:1024300040F00500086004990620C86095E00999FD
:10244000086840F00600086004990720C8608CE026
:102450000999086840F00700086004990820C860DE
:1024600083E00999086840F0080008600499092091
:10247000C860049991F82C0040F0010081F82C000C
:1024800073E00999086840F00900086004990A207F
:10249000C860049991F82C0040F0010081F82C00EC
:1024A00063E00999086840F00A00086004990B206D
:1024B000C860049991F82C0040F0010081F82C00CC
:1024C00053E00999086840F00B00086004990C205B
:1024D000C860049991F82C0040F0010081F82C00AC
:1024E00043E00999086840F00C00086004990D2049
:1024F000C860049991F82C0040F0010081F82C008C
:1025000033E00999086840F00D00086004990E2036
:10251000C860049991F82C0040F0010081F82C006B
:1025200023E00999086840F00E00086004990F2024
:10253000C860049991F82C0040F0010081F82C004B
:1025400013E00999086840F00F0008600499102012
:10255000C860049991F82C0040F0010081F82C002B
:1025600003E06FF003000F9010E00999486840F015
:10257000100048600999486840F002004860BDF9C1
:102580002A0000F047FE00200F90FFE70F9810B0E0
:1025900010BD000086B004908DF80F1004980290D2
:1025A0000298006801900199486820F00200486094
:1025B0000199086820F00F000860029991F82C003A
:1025C00000F0FE0081F82C009DF80F000438014651
:1025D00000910C2800F2B7800099DFE801F00710A5
:1025E00019222B34445464748494A400019908681B
:1025F00040F00300086002990420C860A7E0019938
:10260000086840F00400086002990520C8609EE058
:102610000199086840F00500086002990620C8602A
:1026200095E00199086840F00600086002990720CB
:10263000C8608CE00199086840F0070008600299C2
:102640000820C86083E00199086840F0080008602D
:1026500002990920C860029991F82C0040F001000D
:1026600081F82C0073E00199086840F009000860C7
:1026700002990A20C860029991F82C0040F00100EC
:1026800081F82C0063E00199086840F00A000860B6
:1026900002990B20C860029991F82C0040F00100CB
:1026A00081F82C0053E00199086840F00B000860A5
:1026B00002990C20C860029991F82C0040F00100AA
:1026C00081F82C0043E00199086840F00C00086094
:1026D00002990D20C860029991F82C0040F0010089
:1026E00081F82C0033E00199086840F00D00086083
:1026F00002990E20C860029991F82C0040F0010068
:1027000081F82C0023E00199086840F00E00086071
:1027100002990F20C860029991F82C0040F0010046
:1027200081F82C0013E00199086840F00F00086060
:1027300002991020C860029991F82C0040F0010025
:1027400081F82C0003E06FF00300059007E0019989
:10275000486840F00200486000200590FFE70598B7
:1027600006B0704786B005900491039202930598D5
:10277000019001980068009001990020086101997A
:102780004861019890F82C00C00778B9FFE70398DA
:102790000199C86104980199886102980199886239
:1027A000019880690078009988600FE0039801998A
:1027B0004862049801990862029840100199886261
:1027C0000198006A008800998860FFE7019908690C
:1027D0000130086100990C2048610099486840F078
:1027E0000200486006B0704780B584B0029002983D
:1027F0000138B0F1807F03D3FFE7012003901AE096
:10280000029801384EF21401CEF2000108604FF038
:10281000FF300721019100F015FD01994EF21802D9
:10282000CEF20002002010604EF21002CEF2000242
:1028300011600390FFE7039804B080BD42F24C2181
:10284000C2F200010120086042F25820C2F20000EA
:10285000016801310160006842F2D842C0F20612FC
:1028600047F6D501C2F2E96100FB01204FEAF00012
:1028700048F63611C0F2410188421DD8FFE742F206
:102880005021C2F200010120086042F26020C2F231
:102890000000016801310160006845F28111C0F259
:1028A0000101884207D3FFE742F26021C2F2000132
:1028B00000200860FFE7FFE740F29C00C2F2000042
:1028C000006801282BD1FFE740F29800C2F2000017
:1028D00001680131016000684BF65002C0F21E52DF
:1028E00045F62941CCF28F2100FB01204FEAB000D0
:1028F00045F62841C0F28F2188420FD8FFE744F205
:10290000FC31C4F20001086820F01000086040F2B9
:102910009C01C2F2000100200860FFE7FFE742F2DD
:102920005820C2F200000068B0F57A7F30D1FFE78E
:1029300042F24421C2F200010120086042F2582113
:10294000C2F200010020086042F26020C2F20000E2
:10295000016801310160006845F28111C0F2010196
:10296000884207D3FFE742F26021C2F20001002053
:102970000860FFE742F26020C2F20000006800F049
:102980000100400045F23801C4F202010860FFE78F
:1029900040F22800C2F200000068C0B1FFE740F238
:1029A0002800C2F20000016801390160006868B9BE
:1029B000FFE740F22801C2F200010A20086042F25B
:1029C0004021C2F2000101200860FFE7FFE740F26A
:1029D0002400C2F200000068C0B1FFE740F224000A
:1029E000C2F20000016801390160006868B9FFE7C0
:1029F00040F22401C2F200013220086042F25C2160
:102A0000C2F2000101200860FFE7FFE77047000005
:102A100082B04EF26000C4F20F00006801904EF2E6
:102A20007000C4F20F00006800909DF803000006DB
:102A3000002868D5FFE79DF80100000700283FD473
:102A4000FFE740F21C01C2F2000148F20040C1F26F
:102A5000D77008609DF80300400600281BD4FFE7EC
:102A600040F21C01C2F200010868400808609DF8AD
:102A70000600400600280DD5FFE740F21C01C2F217
:102A800000010868009AC2F3C5520132B0FBF2F0AF
:102A90000860FFE713E09DF80600400600280DD50A
:102AA000FFE740F21C01C2F200010868009AC2F37D
:102AB00086520132B0FBF2F00860FFE7FFE721E049
:102AC0000198C0F3841145F2E820C0F2000050F8EC
:102AD000210040F21C01C2F2000108609DF80600CE
:102AE000400600280DD5FFE740F21C01C2F20001AC
:102AF0000868009AC2F3C5520132B0FBF2F00860D8
:102B0000FFE7FFE735E09DF80500000700280FD537
:102B1000FFE70198C0F3841145F2E820C0F20000FD
:102B200050F8210040F21C01C2F2000108600CE0E4
:102B300040F21C01C2F2000148F20040C1F2D7701D
:102B40000860086840080860FFE79DF80600400636
:102B500000280DD5FFE740F21C01C2F20001086811
:102B6000019AC2F3C3520132B0FBF2F00860FFE7F2
:102B7000FFE702B07047000082B04EF68851CEF2F7
:102B80000001086840F4700008604EF26001C4F271
:102B90000F0108680190019820F001000190019850
:102BA0000860FFE74EF25000C4F20F000068C00555
:102BB000002801D4FFE7F5E74EF25801C4F20F01F7
:102BC0004FF480700860019820F030000190019867
:102BD0000190019820F4F8600190019840F4A860F9
:102BE0000190019820F0F0600190019840F480007D
:102BF0000190019820F420500190019820F4602069
:102C00000190019801904EF27001C4F20F01086822
:102C100040F00040086008680090009840F0804054
:102C20000090009820F480000090009820F0FE5062
:102C30000090009820F0700000900098009000989C
:102C400040F080700090009820F4005000900198AF
:102C50004EF26002C4F20F02106000980860FFE7B5
:102C60004EF26810C4F20F000068C00708B9FFE711
:102C7000F6E74EF27001C4F20F01086820F400601C
:102C8000086002B07047000080B582B02020C4F216
:102C90000300006801909DF80400C00758B1FFE7E9
:102CA0002421C4F20301086840F001000860019883
:102CB00000F004FEFFE702B080BD000080B586B0E2
:102CC000049004980079014600910B2800F273806B
:102CD0000099DFE801F0060E161F28313A434C55E3
:102CE0005E670020C4F2030003901320ADF80A00D1
:102CF00065E00020C4F2030003901420ADF80A0040
:102D00005DE041F20000C4F2030003901520ADF82D
:102D10000A0054E041F20000C4F2030003901620C0
:102D2000ADF80A004BE042F20000C4F20300039049
:102D30001720ADF80A0042E042F20000C4F203009E
:102D400003901820ADF80A0039E043F20000C4F205
:102D5000030003902320ADF80A0030E043F20000A6
:102D6000C4F2030003902420ADF80A0027E044F2E7
:102D70000000C4F2030003904620ADF80A001EE0F4
:102D800044F20000C4F2030003904720ADF80A00AB
:102D900015E045F20000C4F2030003905C20ADF89A
:102DA0000A000CE045F20000C4F2030003905D202D
:102DB000ADF80A0003E04FF0FF300590BCE0039847
:102DC000049908609DF80A00049908730499087929
:102DD00000F0010008610498027942F21021C2F269
:102DE000000141F8220004980069002858D1FFE74B
:102DF0000399C86820F00100C8600399486840F052
:102E0000020048600498406968BBFFE7039904200A
:102E1000086000200190FFE740F21C00C2F20000B1
:102E2000006804998968019A01325143B0FBF1F0BE
:102E3000B0F1011F05D3FFE7FFE7019801300190D2
:102E4000EAE740F21C00C2F20000006804998968B9
:102E5000019A01325143B0FBF1F003998862019865
:102E6000039988630EE003990020086040F21C007B
:102E7000C2F20000006804998968B0FBF1F0039980
:102E80008862FFE70399012048620399886940F04E
:102E9000010088610399C86840F00200C8603FE003
:102EA0000399C86820F48070C86003990420086002
:102EB0000399886840F00200886000200190FFE7D5
:102EC00040F21C00C2F20000006804998968019A6F
:102ED00001325143B0FBF1F0B0F1011F05D3FFE720
:102EE000FFE7019801300190EAE740F21C00C2F2CE
:102EF0000000006804998968019A01325143B0FBCF
:102F0000F1F00399C86201980399C86303994FF4DB
:102F1000807048620399886940F480708861FFE797
:102F20000399C86840F40070C860BDF90A0000F059
:102F300059F900200590FFE7059806B080BD000014
:102F400080B58AB08DF827000891089942F27C205C
:102F5000C2F2000001609DF827100268117100683C
:102F6000007901460591072835D80599DFE801F079
:102F7000040A10161C21272D4CF20000C4F2000098
:102F8000079029E04DF20000C4F20000079023E012
:102F90004EF20000C4F2000007901DE04FF2000066
:102FA000C4F20000079017E00020C4F2010007906F
:102FB00012E041F20000C4F2010007900CE042F27E
:102FC0000000C4F20100079006E043F20000C4F2E2
:102FD0000100079000E0FFE70799086B20F001006F
:102FE00008630799D1F8C80F20F00F00C1F8C80F87
:102FF0000799D1F8C80FC1F8C80F0799086B20F0DE
:10300000200008630799C86A20F06000C86242F295
:103010007C20C2F200000068007B05380146049164
:1030200003281AD80499DFE801F002060C12079968
:10303000C86AC86212E00799C86A40F02000C862F6
:103040000CE00799C86A40F04000C86206E00799A2
:10305000C86A40F06000C86200E0FFE742F27C20EE
:10306000C2F200000068407B0146039140B1FFE7D7
:10307000039801280AD0FFE70398022811D01BE02B
:103080000799C86A20F00200C86216E00799C86A6A
:1030900040F00200C8620799C86A20F00400C862C4
:1030A0000BE00799C86A40F00200C8620799C86A35
:1030B00040F00400C86200E0FFE742F27C20C2F268
:1030C00000000068807B01460291012804D0FFE7E0
:1030D0000298022806D00BE00799C86A20F0080081
:1030E000C86206E00799C86A40F00800C86200E0BC
:1030F000FFE740F21C00C2F20000006801F0F6FB9E
:1031000041EC100B8DED000B42F27C20C2F200006E
:1031100000688068000101F0D2FB9DED001B41ECCE
:10312000100B51EC110B53EC102B01F03DFA41EC5C
:10313000100B51EC100B01F05DF906909DED060AA5
:103140000798BDEEC00A80ED090A9DED060A9FEDC5
:10315000181A20EE010A10EE100A01F01DFD41ECD4
:10316000100B51EC100B9FED100B53EC102B01F0DA
:1031700073F941EC100B51EC100B01F071FB079946
:1031800088620799C86A40F01000C8620799086B06
:1031900040F4407008630799086B40F00100086331
:1031A0000AB080BD00BF00BF000000000000E03F8B
:1031B0000000804281B0ADF80200BDF90200002895
:1031C0000ED4FFE7BDF9021001F01F02012090406C
:1031D0004A094EF20011CEF2000141F82200FFE749
:1031E00001B0704781B0ADF80200BDF902000028BF
:1031F0000ED4FFE7BDF9021001F01F02012090403C
:103200004A094EF20011CEF2000141F82200FFE718
:1032100001B0704781B0ADF80200BDF9020000288E
:103220000ED4FFE7BDF9021001F01F02012090400B
:103230004A094EF20011CEF2000141F82200FFE7E8
:1032400001B0704782B0ADF806000091BDF90600EC
:1032500000280AD4FFE700984001BDF906104EF29D
:103260000042CEF2000288540BE000984001BDF805
:10327000061001F00F014EF61452CEF200028854EF
:10328000FFE702B070470000BFF34F8F4EF60C51BE
:10329000CEF20001086800F4E0600422C0F2FA52A5
:1032A00010430860BFF34F8FFFE700BFFDE700004A
:1032B00082B0019040F21C00C2F20000006844F6A7
:1032C000D351C1F26201A0FB01108009019948436A
:1032D0000090FFE70098411E009110B1FFE700BF8A
:1032E000F8E702B07047000080B582B0019000910D
:1032F0009DF80410002000F09DFB019802B080BDF5
:1033000082B0019040F21C00C2F2000000680199F6
:10331000484341F25971CDF2B711A0FB0110400BA7
:103320000090FFE70098411E009110B1FFE700BF39
:10333000F8E702B07047000080B582B08DF8070052
:103340009DF8070040F23411C2F20001087044F207
:10335000FC32C4F20002106820F0400010601068D7
:1033600020F00800106042F27820C2F200000068ED
:1033700000220123FFF7F6F9FFE742F24820C2F2EC
:103380000000006808B9FFE7F7E742F24821C2F2FF
:1033900000010020086044F2FC31C4F2000108681A
:1033A00040F00800086002B080BD000080B582B027
:1033B0008DF807009DF8070040F23511C2F20001B8
:1033C000087044F2FC32C4F20002106840F0400081
:1033D0001060106820F00800106042F27820C2F2FD
:1033E0000000006800220123FFF7BCF9FFE742F26A
:1033F0004820C2F20000006808B9FFE7F7E742F290
:103400004821C2F200010020086044F2FC31C4F2FD
:103410000001086840F00800086002B080BD0000AC
:1034200080B582B00190009144F2FC31C4F20001F9
:10343000086840F040000860086820F00800086054
:1034400042F27820C2F2000000680199009B00223D
:10345000FFF788F9FFE742F24820C2F20000006857
:1034600008B9FFE7F7E742F24821C2F20001002065
:10347000086044F2FC31C4F20001086840F0080022
:10348000086002B080BD000080B542F26420C2F244
:103490000000006838B9FFE742F24821C2F200019B
:1034A000012008600EE042F26420C2F200000068D1
:1034B000804744F2FC31C4F20001086840F0080083
:1034C0000860FFE780BD000080B594B00020069042
:1034D0001390FEF7C9FBFFF79BFA40F21C00C2F203
:1034E0000000006844F6D351C1F26201A0FB011054
:1034F0008009FFF779F906990720FFF7A3FE0699DF
:103500006A4608200790506002201290106040F236
:10351000B010C2F2000047F64002C0F27D12012353
:103520001193FEF76DFE069940F2E410C2F200001E
:10353000017144F6F012C0F202028260416143F66A
:103540001D21C0F200018161FFF7B8FB6420FFF785
:10355000AFFE00F06BF9FEF7CDF900F035F90698F3
:10356000079B119A40F20021C2F200014FF4165C51
:10357000C1F808C00B738A734873FFF7E1FC45F28A
:103580005430C0F20000FCF7B7FF45F28030C0F2C3
:1035900000000E90FCF7B0FF069845F23801C4F227
:1035A00002010C91086032201090FFF781FE0C9A06
:1035B000109812991160FFF77BFE07990C9A1098EA
:1035C0001160FFF775FE0C9A1098042108911160A4
:1035D000FFF76EFE0C9A1098062109911160FFF713
:1035E00067FE0C9A10980A210A911160FFF760FE9D
:1035F0000C9A10980C210B911160FFF759FE0C9A50
:1036000010980E210D911160FFF752FE06990C9A49
:1036100010981160FFF74CFE0C9A109812991160E7
:10362000FFF746FE07990C9A10981160FFF740FECD
:1036300008990C9A10981160FFF73AFE09990C9AB4
:1036400010981160FFF734FE0A990C9A10981160D7
:10365000FFF72EFE0B990C9A10981160FFF728FEC9
:103660000C9A0D9910981160FFF722FE45F2633015
:10367000C0F20000FCF740FF0E98FCF73DFF1098E9
:1036800044F2FC32C4F200020F92116841F01001C2
:103690001160FFF70DFE0F9A1098116821F01001CC
:1036A0001160FFF705FE0F9A1098116841F01001A4
:1036B0001160FFF7FDFD0F9A1098116821F01001BD
:1036C0001160FFF7F5FD0F9A1098116841F0100195
:1036D0001160FFF7EDFD0F9A1098116821F01001AD
:1036E0001160FFF7E5FD0F9A1098116841F0100185
:1036F0001160FFF7DDFD0F9A1098116821F010019D
:103700001160FFF7D5FD1199129842F28022C2F2A2
:103710000002118042F28221C2F200010880FFE71C
:1037200045F27530C0F20000FCF7E6FE42F2802060
:10373000C2F200000290008849F69A11C1F6991170
:103740000491A0FB0120A0FB012101EB8101A0EB72
:103750004100C2B240F23810C2F2000005900521CB
:10376000FDF7DAFF0299049A05980988A1FB023255
:1037700002EB8202A1EB4201CAB20421FDF7CCFFA9
:10378000049A059842F28221C2F20001039109884D
:10379000A1FB0231A1FB023202EB8202A1EB42014A
:1037A000CAB20321FDF7B8FF0399049A0598098866
:1037B000A1FB023202EB8202A1EB4201CAB202215A
:1037C000FDF7AAFFACE7000080B584B040F23810E6
:1037D000C2F2000001900521FDF740FF019802218F
:1037E000FDF73CFF01980421FDF738FF0198012106
:1037F0000291FDF733FF02988DF80F00FFE79DF867
:103800000F00062810DCFFE79DF80F1040F238107B
:10381000C2F200000A22FDF77FFFFFE79DF80F00CC
:1038200001308DF80F00EAE704B080BD80B586B0A6
:1038300040F2B010C2F2000002900221FEF77EF8C2
:1038400005A804A9FEF766F80599049A6B464FF49B
:103850000050186040F26010C2F2000040F21023E5
:10386000C2F2000300F03CFD02981021FEF792FE28
:10387000012000F0F7FCFF20039000F0FFFC03980C
:1038800000F05AFD45F2C000C0F2000000F04EFD0D
:1038900043F60D20C0F20000FEF732F843F6FD10AB
:1038A000C0F2000000F0E4FC45F2FC31C4F200017B
:1038B000086840F00200086006B080BD80B582B0A4
:1038C000019042F28420C2F20000028840F23811D6
:1038D000C2F2000108684968C2F1200301FA03F34B
:1038E000D0401843203AD140002A58BF0846C007AC
:1038F00038B1FFE747F69071C4F20C21012008604F
:1039000006E047F69071C4F20C2100200860FFE742
:1039100042F28420C2F20000028840F23811C2F262
:1039200000018868C968C2F1200301FA03F3D0409E
:103930001843203AD140002A58BF0846C00738B182
:10394000FFE747F69471C4F20C210120086006E0FD
:1039500047F69471C4F20C2100200860FFE742F2A0
:103960008420C2F20000028840F23811C2F2000145
:1039700008694969C2F1200301FA03F3D0401843F2
:10398000203AD140002A58BF0846C00738B1FFE7A7
:1039900047F69871C4F20C210120086006E047F652
:1039A0009871C4F20C2100200860FFE742F28420E5
:1039B000C2F20000018801310180008840F2381114
:1039C000C2F20001097E0139884214D1FFE742F2B8
:1039D0008421C2F20001002008800C21C4F20301FE
:1039E000086820F00100086040F2E410C2F2000014
:1039F00080698047FFE702B080BD000040F22001EF
:103A0000C2F20001012008607047000040F220016E
:103A1000C2F20001012008607047000042F2542108
:103A2000C2F200010120086040F23811C2F2000128
:103A30004876704783B08DF80B008DF80A109DF81A
:103A40000B0001460091072835D80099DFE801F006
:103A5000040A10161C21272D4CF20000C4F20000AD
:103A6000019029E04DF20000C4F20000019023E033
:103A70004EF20000C4F2000001901DE04FF2000081
:103A8000C4F20000019017E00020C4F20100019090
:103A900012E041F20000C4F2010001900CE042F299
:103AA0000000C4F20100019006E043F20000C4F2FD
:103AB0000100019000E0FFE7FFE7019880698006C0
:103AC000002801D5FFE7F8E79DF80A000199086092
:103AD00003B070475FEA400C08BF91F0000F4FEA57
:103AE0008C234FEAC12243EA51514FEA1C5018BFC0
:103AF00000F5F0404FEA300018BF41F000415FEAA6
:103B00006C5C00F02980BCF1FF3F08BF40F08040B2
:103B10007047130C06BF12044FF0100C4FF0000C4E
:103B2000130E04BF12020CF1080C130F04BF120194
:103B30000CF1040C930F04BF92000CF1020CD30F94
:103B400004BF52000CF1010C11464FF00002A0F12D
:103B50001F00A0EB0C00704711F0004F08BF70472A
:103B600031F000413FF4D5AF0B0C06BF09044FF014
:103B7000100C4FF0000C0B0E04BF09020CF1080CE6
:103B80000B0F04BF09010CF1040C8B0F04BF89005B
:103B90000CF1020CCB0F04BF49000CF1010CCCF16D
:103BA000200322FA03F341EA030102FA0CF2A0EB2C
:103BB0000C0000F10100704723F07F4720F07F4C9C
:103BC00080EA030000F00040ACEB070303F57C53F0
:103BD00003F1FF032DE9804909B44FEA144324EAB5
:103BE00003484FEA154B25EA0B4E0FF2042606EB6D
:103BF00013273E7803FB0667C7F5000707FB06F6A9
:103C00004FEAD64606F102064FEA543707FB066C28
:103C1000CCF1005C4FEA1C472CEA074C0CFB06F584
:103C200007FB06F404EB15464FEA961649085FEACF
:103C3000320234BF00204FF000404FEAD13706FB7C
:103C400007FC4FEA1C4C0CFB0BF7D21B03FB0CF7D9
:103C500061EB07010CFB0EF7B0EB074072EB17426C
:103C60000CFB08F734BFA2EB0742B2EB074261EB53
:103C700017414FEA0C444FEA910706FB07FC4FEA55
:103C80001C4C0CFB0BF7B0EBC74072EB573203FB3D
:103C90000CF734BFA2EBC742B2EBC74261EB57311E
:103CA0000CFB0EF7B0EBC70072EB57720CFB08F77A
:103CB00034BFA2EBC702B2EBC70261EB57714FEA08
:103CC000816141EA92114FEA826242EA90124FEA20
:103CD000806004EBCC04039F4FEAD13706FB07FC5E
:103CE0004FEA1C4C0CFB0BF7D21B03FB0CF761EBF0
:103CF00007010CFB0EF7B0EB074072EB17420CFB11
:103D000008F734BFA2EB0742B2EB074261EB174161
:103D10004FEA8C5504EB9C244FEA910706FB07FC05
:103D20004FEA1C4C0CFB0BF7B0EBC74072EB573261
:103D300003FB0CF734BFA2EBC742B2EBC74261EB07
:103D400057310CFB0EF7B0EBC70072EB57720CFB50
:103D500008F734BFA2EBC702B2EBC70261EB5771A1
:103D60004FEA816141EA92114FEA826242EA90127F
:103D70004FEA806015EB4C2544F100044FEAD1373F
:103D800006FB07FC4FEA1C4C0CFB0BF7D21B03FB9A
:103D90000CF761EB07010CFB0EF7B0EB074072EB81
:103DA00017420CFB08F734BFA2EB0742B2EB074205
:103DB00061EB17414FEA813141EA92414FEA823289
:103DC00042EA90424FEA80304FEA0C7615EB1C1520
:103DD00044F1000448EA03434EEA0B484FF0000E5A
:103DE000B2EB080C71EB030724BF624639464EEB79
:103DF0000E0E4FF0000B0018524149414BEB0B0BDC
:103E0000B2EB080C71EB03077BF1000B24BF624699
:103E100039464EEB0E0E4FF0000B0018524149414F
:103E20004BEB0B0BB2EB080C71EB03077BF1000BB8
:103E300024BF624639464EEB0E0E51EA020718BF08
:103E400046F0010616EB0E7655F1000254F1000122
:103E500003D5BDE88901BDE80088BDE88901BDE85A
:103E60000048B619524141EB0101A3F1010370472B
:103E700080807F7E7D7C7B7A7978777676757473A7
:103E8000727171706F6E6E6D6C6C6B6A6A69686866
:103E9000676666656464636362616160605F5F5EFC
:103EA0005E5D5D5C5C5B5B5A5A5959585857575672
:103EB00056555555545453535252525151505050D7
:103EC0004F4F4F4E4E4D4D4D4C4C4C4B4B4B4A4A29
:103ED0004A4949494848484747474746464645456D
:103EE00045444444444343434342424242414141A6
:103EF0009C46002B30D477002BD04FEA37071CB5F7
:103F000003B44FF010004FF01001BAF1000F06D0CB
:103F1000BCF1000FDCBF40F0080040F008014FF09A
:103F200000000FBCBDE810400BF1010BBBF1010F0D
:103F300008BF5FEA170722BF12F1010211F1010168
:103F40004FF0004143F1000300F0004043EA00005D
:103F50007047F9D35708D0E746EA06464FEA1646B7
:103F600013F1400F1FDD13F1200FDFBF16430A4688
:103F7000002120335B42BED0C3F1200746EA06464B
:103F80004FEA164602FA07F746EA070622FA03F254
:103F9000C3F1200701FA07F742EA070221FA03F109
:103FA0004FF00003A7E746EA020646EA06464FEA54
:103FB000164646EA0106BCBF46EA0646360C4FF0F6
:103FC00000034FF000024FF0000194E72DE9804C10
:103FD00070B49A46934691E8380007C831EA400C1D
:103FE00048BF34EA430C03D5FFF7E6FDFFF780FF37
:103FF000F0BCBDE8008C2DE9804C70B49A46934625
:1040000091E8380007C810F0804F08BF13F0804FC8
:1040100003D100F005F8FFF76BFFF0BCBDE8008CA2
:1040200020F07F4723F07F4C80EA030000F000403F
:1040300007EB0C03A3F57C53A3F1FE0392F0000FF2
:1040400000F0B38095F0000F00F077802DE9014972
:104050004FEA114021EA00484FEA144624EA064795
:1040600000FB06FC08FB06F607FB08F818EB064801
:104070004CEB164C00FB07F718EB07484CEB1740CE
:104080004FEA124B22EA0B4E4FEA154625EA064745
:104090000BFB06FC0EFB06F607FB0EFE1EEB064EA8
:1040A0004CEB164C0BFB07F71EEB074E4CEB174B7C
:1040B00018EB0B0840F1000018EB0E0B58EB000852
:1040C00040F100008F1A4FF000014FF000063CBF96
:1040D000C943661B14BFB5EB040C00213CBFC943A8
:1040E000F61B4FEA174427EA04454FEA1C472CEA1F
:1040F000074C04FB076205FB07F70CFB05F616EB04
:10410000074642EB174204FB0CFC16EB0C4642EB55
:104110001C421BEB060658EB020241414EEA8E0E92
:1041200046EA9E0601D5BDE80189B619524141EB28
:104130000101A3F10103BDE801894FEA144524EA16
:1041400005464FEA114721EA074C05FB07F406FB39
:1041500007F70CFB06F111EB074144EB174405FB95
:104160000CFC11EB0C4144EB1C444FEA124722EAD1
:10417000074C05FB07F206FB07F70CFB06F616EBF0
:10418000074642EB174205FB0CFC16EB0C4642EBD4
:104190001C456A1854F1000148BF7047B6195241D6
:1041A00041EB0101A3F10103704795F0000F37D0F7
:1041B0004FEA114221EA02464FEA144724EA074C2B
:1041C00002FB07F106FB07F70CFB06F414EB0744B0
:1041D00041EB174102FB0CFC14EB0C4441EB1C417E
:1041E0004FEA154725EA074C02FB07F506FB07F7E0
:1041F0000CFB06F616EB074645EB174502FB0CFCDD
:1042000016EB0C4645EB1C42121951F1000148BF58
:104210007047B619524141EB0101A3F10103704708
:104220004FEA144524EA05464FEA114721EA074CB4
:1042300005FB07F106FB07F70CFB06F212EB074242
:1042400041EB174105FB0CFC12EB0C4251EB1C41FE
:104250004FF0000648BF7047921841EB0101A3F1EF
:10426000010370470149C86070470000000000204A
:104270000149086170470000000000204FF47841B8
:104280004FF4FC6201EA102102EA50121143C0F31C
:10429000C4000143114810B4C2682AB94FF47F42E8
:1042A00002EA012242EA11218268D2E90BC4936C2E
:1042B000906B04FB1C339C45C8BF1846401E3CBF96
:1042C00010BC7047936B8342DCBF10BC7047536BCC
:1042D00023F81010401EF5D210BC704700000020DB
:1042E00010B4019CC0E910124A43826490F84C203B
:1042F000C46322F0040C620892FBF1F24363826211
:1043000002FB01F383630023C0E90031C0E90232FC
:1043100003632CF0010380F84C305143C162024921
:10432000886010BC70470000000000200149086050
:1043300070470000000000204FF478414FF4FC6209
:1043400001EA102102EA50121143C0F3C4000843ED
:1043500001498861704700000000002003B4019803
:104360004100009850EAC12018BF04204A0D18BF30
:1043700040F0010040F2FF72B2EB515F08BF40F025
:104380000200012808BF052002B0704730380A2813
:1043900001D20120704700207047000010B50029AD
:1043A0000AD00878002807D005487844FDF7E4F8DB
:1043B000002801D0002010BD0248784410BD000044
:1043C000861000007E10000010B500290AD0087881
:1043D000002807D005487844FDF7CEF8002801D022
:1043E000002010BD0248784410BD00007610000087
:1043F0006E10000021F0004201F00043A2F1605273
:10440000B2F5801F28BFD2F17F6C0BD95FEA001C88
:1044100043EAC20242EB507018BF704728BF20F039
:1044200001007047B2F5801FBCBF184670474FEAC5
:10443000410C1CF5001F02D2084600F02BBC70B5E1
:1044400000F067FA00000089FFF7F6BF4FF0004068
:10445000A0F580007047000010B591EA030F48BF37
:1044600083F0004300F1B282841A71EB030C05D291
:10447000121943EB0C03001B61EB0C014FEA1154C2
:10448000A4EB135CDFF81CE11EEA430F18BF9EEAA1
:10449000445F00F0748021EA045123EA0E0343F4E0
:1044A0008013DCF1200E32D322FA0CFE10EB0E004A
:1044B00023FA0CFE41EB0E01CCF1200E03FA0EFEA6
:1044C00010EB0E00CCF1200E51F10001B1F5801F70
:1044D00032D201EB045112FA0EF2BDE8104058BF7F
:1044E0007047401C38BF5FEA420218BF704700287F
:1044F00014BF20F0010041F100014FEA410313F520
:10450000001F38BF7047A1F1C04100F050BA012A26
:1045100043EB0302ACF1200CDCF11F0E32BF4FF075
:10452000000E23FA0CF310EB030041EB0451B4EB43
:10453000115FD0D0A1EB045101F58011490801EBC6
:1045400004515FEA30000ED350F1000038BF12FA78
:104550000EFE08D1BDE81040C9E7401C38BF5FEA35
:104560004202CAD1C3E7BDE810404FEA410313F548
:10457000001F38BF7047A1F1C04100F018BA9EEA91
:10458000445F08D011EA5E0FBDE8104004BF01F09F
:10459000004100207047BDE8104070B500F0B9F947
:1045A00064FBBE3E0000E0FF2DE9C04130B4DFF8FF
:1045B000A8C23CEA111418BF3CEA131400F0F080C2
:1045C0001CEA111481EA030544EAD57418BF1CEAF9
:1045D000131500F0CB80A4EB050404F17F7404F5FF
:1045E00000344FF0004545EAC12145EAC32341EAC2
:1045F000505143EA52534FEAC0204FEAC222994237
:1046000008BF904200F0A0804FEA13650FF24816F1
:10461000765D4FEA134506FB05F7C7F1807706FB89
:1046200007F74FEAD737A7FB03687642A7FB06CE0A
:10463000C8F5803838BFA8F1010807FB08E6A6FBDB
:10464000028C4FF0000EE6FB03CED8F100086FEAB3
:104650000C0C5CF1000C6FEA0E0E4EF1004EA6FB46
:104660000C584FF00007E6FB0E87A1FB08C6A0FB25
:1046700007CE16EB0E064FF0000545F10005E1FBF5
:10468000076515F1E04E7EBFA4F580345FEA46066B
:104690006D4116F1800745F100054FEA172747EAFB
:1046A00005674FEA15254FEA0666A6F1DE46B6F124
:1046B000805F20D9384605EBC47124F0010C01EB72
:1046C0000C11BCF1FE6F02D8F0BCBDE800812442A1
:1046D0005CBF01F5801E9EEAC47F02D4F0BCBDE839
:1046E0000081244200F13980A1F1C041F0BCBDE855
:1046F000004100F05CB94FEAD02040EA41504FEA57
:10470000D1214FEAD22242EA43524FEAD323A7FBF8
:10471000028607FB036605FB02661EEA0E0F58BF02
:10472000A6EB0056B6EB00564FEA520E4EEAC37E99
:1047300018EB0E0E56EB530EBCD518EB02085E417B
:104740007F1C55F10005B5E74FF480154FF00007C9
:104750004FF000064FF00008ACE701F1C04101F056
:1047600000414FF00000F0BCBDE800810CEA1315D9
:1047700011EA0C1F00D00CE013EA0C1F00F025809A
:104780004FF0000081EA030101F00041F0BCBDE8F8
:104790000081F0BCBDE8004181EA030100F007B9E7
:1047A000F0BCBDE8004170B500F0B3F8097EFC3EF6
:1047B00000F007B84FF0000081EA030101F000416A
:1047C000704781EA030100F0F2B8F0BCBDE8004197
:1047D00022494FF000007047FFFDFBF9F7F5F4F2B6
:1047E000F0EEEDEBE9E8E6E4E3E1E0DEDDDBDAD88C
:1047F000D7D5D4D3D1D0CFCDCCCBCAC8C7C6C5C4EA
:10480000C2C1C0BFBEBDBCBBBAB9B8B7B6B5B4B300
:10481000B2B1B0AFAEADACABAAA9A8A8A7A6A5A4EB
:10482000A3A3A2A1A09F9F9E9D9C9C9B9A999998AF
:104830009797969595949393929191908F8F8E8E52
:104840008D8C8C8B8B8A89898888878786858584DF
:1048500084838382828181800000FF070000F87FCB
:104860004FEA41034FEA5353A3F58063D3F11E038C
:10487000C8BFD3F1210C0CDD4FF0004242EAC12247
:1048800042EA505232FA03FC8CEAE17CACEBE17074
:104890007047102BC4BF0020704703F5787CBCF133
:1048A000FF3F04D06FF0004282EA2100704770B5EC
:1048B00000F02FF84992248000207047F2E710F0B2
:1048C000004248BF4042B0FA80F310FA03F10AD028
:1048D000C3F11D0303F5806302EB03524FEA41501D
:1048E00002EBD12170474FF000007047B0FA80F31F
:1048F00010FA03F10AD0C3F11D0303F580634FEAF8
:1049000003524FEA415002EBD12170474FF00000B3
:1049100070470EF1020E2EF0030E5EF8046B364265
:1049200005D4012A43EB030515F5001F12D8012811
:1049300041EB010C1CF5001F0CD80ED14FEAD17CC5
:104940000CEB4C0C0CF1020C15F5001F08BF4CEBE6
:10495000D37C04E04FF0080C01E04FEAD37C0CEB71
:104960004C0526FA05F606F00706B6F1040C06D249
:104970000EEB860CBDE870404CF0010C6047DFE8A0
:104980000CF0090B02024FF00041A1F500214FF09D
:10499000000070BD19461046012851EB010418BFF4
:1049A000D4F5001484BF002001F0004170BD080858
:1049B000A0F500114FEA31017047000010B591EAEF
:1049C000030F48BF83F000433FF54EAD841A71EBEF
:1049D000030C07D28CF0004C121943EB0C03001BA4
:1049E00061EB0C014FEA1154A4EB135CDFF8A4E176
:1049F0001EEA430F18BF9EEA445F00F0B48021EA2C
:104A0000045123EA6E035242C3EB6E0338BF5B1EB0
:104A1000DCF1200E25D322FA0CFE10EB0E0043FA37
:104A20000CFE41EB0E01CCF1200E03FA0EFE10EB52
:104A30000E00CCF1200E51F1000129D401EB0451FC
:104A400012FA0EF2BDE8104058BF7047401C1CBF60
:104A5000B2F1004F704700280CBF491C20F0010044
:104A6000704712EB020E43EB030218BF4FF0010E2A
:104A70004EEA4202ACF1200CDCF11E0E56D943FA8C
:104A80000CFE10EB0E00CCF11E0E51F1FF31D5D50E
:104A90000EF1010E12FA0EFE404141EB010101EB55
:104AA000445C5FEA5C5C10D901EB045110EBDE70F2
:104AB00038BFBEF1004FBDE8104018BF7047002856
:104AC0000CBF491C20F00100704734D24FEAD42CAF
:104AD00024F4006411F500111BD0B1FA81F20B3AF5
:104AE000A41AA41ED2F12003914030FA03F3194313
:104AF000904001EBCC7101EB0451002CBDE810405B
:104B0000A8BF704701F1C04101F000414FF0000023
:104B10007047B0FA80F310FA03F102D1BDE81040FB
:104B20007047E41A173C4805C90AE2E701EB045153
:104B3000BDE81040704749104FEA300001EB0451C6
:104B4000BDE8104002E04FF0000170474A0008BF86
:104B50000042F8D0B2F5001F28BF704701F00041B5
:104B60004FF0000070479EEA445F07D011EA5E0FE5
:104B7000BDE8104004BF002100207047BDE8104090
:104B800070B5FFF7C6FE00BF40DFF63E104683F06B
:104B9000004170470000E0FF43004FEAD30C4FEAAA
:104BA0003C0C43401FBF40070CF1605113F0FE4F17
:104BB00070471CF0006F03D10CF0004100207047DB
:104BC0000CF0004343EA507040EACC0010B500F00E
:104BD0000EF800BF000000924FEA0001FFF7E7BEA9
:104BE0004FF00041A1F500214FF0000070470EF199
:104BF000020E2EF0030E5EF8044B244204D44FEA5A
:104C00004102B2F17F4F11D84FEA4003B3F17F4F19
:104C10000CD80ED14FEAD07C0CEB4C0C0CF1020CF2
:104C2000B2F17F4F08BF4CEBD17C04E04FF0080C91
:104C300001E04FEAD17C0CEB4C0324FA03F404F0BE
:104C40000704B4F1040C06D20EEB840CBDE810404E
:104C50004CF0010C6047DFE80CF0070802024FF04F
:104C60000040A0F5800010BD0846420018BFD2F1F8
:104C7000807288BF00F0004010BDF1EE100A4FF6C0
:104C8000FF71C0F2C03120EA010040F04070E1EE57
:104C9000100A7047FF2141EAD050C0057047FCF769
:104CA0006FB8FCF7A3B90505000620090221111110
:104CB000111131500703321212F0400D06D11125A7
:104CC00021112521113111E00B068143315261611F
:104CD0001441901508832121111131111136411110
:104CE000113111112122F0301106723121211132BE
:104CF0002111111111212311D00602211111D00B04
:104D0000034111212121212121310C0331312121A4
:104D1000212121211120080451231321F0700906BB
:104D2000F05151353151F00703F071211120040386
:104D3000F2D00402E1500B05813141413141314152
:104D4000900D06D3213111311131113123E00A05C3
:104D5000B2211141414124B00905A441413131340E
:104D6000B00905A44122514113C00B06E2423111A2
:104D700021212541E00905A41143514113C00B0530
:104D8000B311441121112122C00905A4413141313F
:104D900041D00C05A41121222112112114B00B05C0
:104DA000B221211121144113C00502617150070382
:104DB000D1812111200905D122215251F01007057E
:104DC000F05464F0100A06F03262613222F01009E9
:104DD00004433131222171A01208F0343141111302
:104DE000111111111111142184B00C06E24231117C
:104DF0003121241131D00C05A411211321211121BD
:104E000013C00B06D322211151522123E00D06C4F9
:104E1000212211311131112214E0090483113311BF
:104E20003133900904831133113131B00C06D4129F
:104E300021115122122124D00E06C1311131151138
:104E40003111311131D009024111111111115009E3
:104E500004A13131313113900D05A12111112232FC
:104E600031112121B00904813131313133901808D9
:104E7000F0123212321111111111111111111111FF
:104E800011112121F0201106C2211221111111113D
:104E9000111111221122D00E07F4223111411141BA
:104EA000113224F0100B05A321211121132141E01F
:104EB0000F08F02432312141214121323581900DFA
:104EC00005A3212111211321211121B00905B311BD
:104ED00042524113C00906C53151515151F00E06DD
:104EE000C131113111311131113123E00E07E1418E
:104EF0002121312131115252F020170AF051313164
:104F0000212121311111113111111142125131F0B0
:104F1000800D06D1212111415231112131D00C06D1
:104F2000C13121113111415151F00905A4413131F3
:104F30004134B00B033211212121212121220B0503
:104F40005141514151414151600B033221212121F5
:104F5000212121120B0491211111111111F02005B1
:104F60000600066506030131F0A00905F44114119D
:104F70002114B00D0551414321211121112113C0EC
:104F80000804D211313142900D05814123112111C4
:104F900021112123B00A05F0122121141153B00A66
:104FA0000452212321313131A00B05F411211411B8
:104FB000531121140E0551414411211121112111C8
:104FC00021B00902213111111111500A034151215F
:104FD00021212121120E05514141211111223111AE
:104FE0002121B00A0221111111111111501208F0E2
:104FF00097112121112121112121112121F0200CB2
:1050000005F41121112111211121B00C06F04321C9
:10501000311131113123E00D05F32121112111212D
:10502000132141400D05F0131121112111212341BC
:10503000410804C311313131B00804C311423113A6
:10504000900904912321313132900C05F121112175
:105050001121112114B00A05F1211121223232C08F
:105060001307F061211111121111121121111121D7
:1050700021F0100A05F1212232322121B00D05F173
:10508000212111211122414131300804C331212154
:1050900033900B045221313121413131320B022145
:1050A00011111111111111110C0331212121311193
:1050B000212121200905A2111112F0F01000000099
:1050C00001080A08000005000E00150022002D004E
:1050D000420053005900640070007800810088008D
:1050E0008C0090009B00A800B200BB00C400CF0061
:1050F000D800E300EC00F800030108010F011801DB
:105100001F0129013201440150015C016701740152
:105110007D0186019201A001A901B201BF01C80170
:10512000E001F101FF010A02190226022F023802F2
:10513000460254026B02780284028D029802A30296
:10514000AE02B902BE02C402CD02DA02E202EF02EE
:10515000F90203030E031C0325032F033D0347033A
:105160005903650371037E038B0393039B03A4031D
:10517000B003BA03CD03D703E403EC03F70302043F
:105180000E040000A64C000000000000000000001B
:10519000303132333435363738394142434445466D
:1051A0004030580030313233343536373839616267
:1051B0006364656640307800040000080000000069
:1051C0000000000200010000103031323334353667
:1051D0003738396162636465667870003031323324
:1051E000343536373839414243444546585000003B
:1051F00002400000000000A0000000000540000088
:10520000000000C8000000000C4000000000409CAE
:1052100000000000194000000020BCBE000000009B
:1052200034400000BFC91B8E00000004B5400000E0
:10523000504BCFD06607E2CF010000006C41000068
:105240003E8251AADFEEA73401000000D9420000DF
:10525000DCB5A0E23A301F97FFFFFFFFB445000026
:10526000FD25A0C8E9A3C14FFFFFFFFFFF3F0000DE
:105270000000008000000000FF3F000000000080F0
:10528000000000000000000000000000000300001B
:10529000C0000000C0030000300000003003000028
:1052A00000000000000C0000000F0000C00C000017
:1052B000C00F0000300C0000300F0000CF000000D5
:1052C000000000003F00000033000000F00000007C
:1052D000F3000000FF00000000000000FF000000DD
:1052E000F0000000000000000000000000000000CE
:1052F00000000000000000000000000000000000AE
:1053000000093D0000803E0000004B00404B4C0077
:1053100000204E00808D5B0000C05D0000807000AA
:1053200000127A0000007D0080969800001BB700F4
:105330000080BB00C0E8CE00647ADA000024F400EC
:105340000000FA0080A81201002D310100366E0124
:1053500040787D010A48656C6C6F205247422120DD
:105360000A0D000A48656C6C6F2042757A7A657286
:1053700021200A0D0020687431363231200A0D00D8
:1053800048617665206120676F6F64206C616220E0
:1053900073657373696F6E2E0A0D004D4554323379
:1053A00030340046413234002563004B657920508B
:1053B0007265737365640059756368656E204A6928
:1053C000616E6700253032753A20253032753A20FB
:1053D000253032750048617264206661756C740A0C
:1053E00000000000FC0000003C000000F000000095
:1053F000FC0000003C000000CC000000CC000000DD
:10540000FC000000FC000000FC00000000000000A8
:10541000605500000000002038000000D0020000AD
:105420009855000038000020502C0000F0020000C9
:105430001C00000043000000F8FFFFFF0C0000000C
:105440000E0000000F0000002E0000001001000000
:1054500043000000F8FFFFFF004040404040404054
:105460004040414141414140404040404040404037
:1054700040404040404040404005020202020202DB
:10548000020202020202020202202020202020202A
:10549000202020020202020202029090909090903E
:1054A00010101010101010101010101010101010FC
:1054B0001010101002020202020288888888888870
:1054C000080808080808080808080808080808085C
:1054D0000808080802020202400000000000000064
:1054E00000000000000000000000000000000000BC
:1054F00000000000000000000000000000000000AC
:10550000000000000000000000000000000000009B
:10551000000000000000000000000000000000008B
:10552000000000000000000000000000000000007B
:10553000000000000000000000000000000000006B
:10554000000000000000000000000000000000005B
:10555000000000000000000000000000000000004B
:10556000000000000000000000000000000000003B
:105570000000000001000000000000000024F40012
:1055800001000000320000000A000000800000005E
:08559000A00000000000000073
:040000050000026D88
:00000001FF
